:100000000C9462000C948A000C948A000C948F1358
:100010000C948F130C948F130C948A000C945F0C27
:100020000C948A000C948A000C948A000C94961507
:100030000C948A000C948A000C948A000C948A0018
:100040000C9445130C948A000C9407120C94E11143
:100050000C948A000C948A000C948A000C948A00F8
:100060000C94A40E0C948A000000000024002700C9
:100070002A0000000000250028002B0000000008D6
:10008000000201000003040700000000000000005F
:1000900000000000230026002900040404040404D6
:1000A0000404020202020202030303030303010227
:1000B00004081020408001020408102001020408F6
:1000C0001020B62211241FBECFEFD8E0DEBFCDBF77
:1000D00012E0A0E0B1E0E6EFF2E502C005900D927B
:1000E000A433B107D9F726E0A4E3B2E001C01D9222
:1000F000AE34B207E1F710E0C2E6D0E004C02197C9
:10010000FE010E944A27C136D107C9F70E94BF17D6
:100110000C9479290C940000833028F4E82FF0E047
:10012000EA5BFD4F60830895883000F54091380305
:100130005091390321E030E0672B61F4B90102C02E
:10014000660F771F8A95E2F7CB01809590958423FF
:10015000952308C002C0220F331F8A95E2F7CA0117
:10016000822B932B90933903809338030895833027
:1001700008F062C0482F440F440F440F485F4731D6
:1001800008F046E1582F550F550F550F90E071E0DC
:100190005417F0F42EEF250F2231B8F4252F30E05C
:1001A000F901E65CFC4FE081E23078F4972B220FF6
:1001B000331FF901EB57FC4FA1E0B0E0272F2623B6
:1001C00011F4A0E0B0E0B183A083770F5F5FE0CFD0
:1001D00081110AC09C7FF8948BB1292F209582232E
:1001E0006923682B6BB927C08130C1F46923F89467
:1001F00025B1892F8F7380958223262F2F73822B11
:1002000085B988B162956695669563709295969565
:100210009695937090959823692B0CC09F70F894D5
:1002200028B1892F880F880F809582236923660F54
:10023000660F682B68B9789408956F927F928F92B9
:100240009F92AF92BF92CF92DF92EF92FF920F9365
:100250001F93CF93DF931F92CDB7DEB7982F3B014B
:10026000863108F003C1082F10E0F801E65CFC4F6E
:100270008081833009F48FC0843009F0F7C0925038
:100280009C3008F0ECC0780182E0E81AF1086701C0
:10029000CC0CDD1C603282E078070CF042C077FDA8
:1002A00005C0653B710524F4DB0104C0A0E001C07A
:1002B000A4EBB0E0F601EE0DFF1DE855FA4F818189
:1002C00028E830E04901881A910887FD9394880C4A
:1002D000991C880C991C092C000CAA08BB08828167
:1002E00028E532E0281B310987FD3395220F331FA3
:1002F000220F331FA901330F660B770B9A01AB0155
:10030000281939094A095B090E94682524EB30E065
:1003100040E050E00E943E25820E931EA41EB51EB2
:1003200001C04B01F601EE0DFF1DE855FA4F20818B
:100330002C3008F094C0318188E890E0831B91094B
:1003400037FD9395880F991F880F991F8816990676
:1003500084F0828148E552E0481B510987FD53959E
:10036000440F551F440F551FC401481559050CF47F
:10037000CA010297880F991F4FB7F89430E0F9012E
:10038000EE0FFF1F2E0F3F1FF901ED57FA4F92831B
:1003900081834FBF64C0933049F08BEF890F823067
:1003A00028F087EF890F833008F059C061E0892F6A
:1003B00099830E94C41299816114710411F460E060
:1003C00005C08FEF6816710429F461E0892F0E943F
:1003D000941245C0F801E458FF4FE491E330F9F07E
:1003E00048F4E130B9F0E230A1F584B5806284BD13
:1003F00068BC35C0E730E9F0E83019F1E43049F580
:100400008091800080628093800070928B00609267
:100410008A0025C084B5806884BD67BC20C08091F7
:1004200080008068809380007092890060928800CC
:1004300016C08091B00080688093B0006092B300D5
:100440000EC08091B00080628093B0006092B400D2
:1004500006C080E8681671040CF0B7CFB0CF000F6B
:10046000111FF801EB57FC4F718260820F90DF91F2
:10047000CF911F910F91FF90EF90DF90CF90BF90A1
:10048000AF909F908F907F906F900895BF92CF9282
:10049000DF92EF92FF920F931F93CF93DF9300D0E1
:1004A000CDB7DEB7B82E8B01C82ED12CC601865C25
:1004B0009C4F7C01FC018081863061F4809126068E
:1004C000882341F06630710529F0109226068FEFDF
:1004D000809300014EEF4B0D4C30C8F404301105F1
:1004E000B1F0C6010297FC01EE0FFF1F8E0F9F1F98
:1004F000FC01E855FA4FE081F0E0CF01880F991F29
:10050000E80FF91FED57FA4F808186FDD3C092EFB7
:100510009B0D983070F461E070E00230110511F02D
:1005200060E070E0892F49839A830E9494009A8149
:1005300049814231C8F4EB2DE695E695E6958B2D81
:100540008770F0E0EA54FC4F21E030E001C0220F58
:100550008A95EAF70115110519F48081282B03C04B
:100560002095808128232083F601EE0FFF1FEB5793
:10057000FC4F118210820230110591F03CF40115FC
:100580001105E9F00130110541F185C00430110574
:1005900009F44AC07CF10630110509F474C07BC02F
:1005A000983008F08AC0423140F460E08B2D0E9400
:1005B000C41260E08B2D0E94941282E069C0423127
:1005C00008F07BC060E08B2D0E94C41260E08B2D90
:1005D0000E949412F701108270C0423108F06DC081
:1005E00060E08B2D0E94941261E08B2D0E94C4125A
:1005F00081E04EC0F3E0BF1649F08BEF8B0D8230E7
:1006000028F087EF8B0D833008F057C061E08B2D09
:100610000E94C41261E08B2D0E94C41260E08B2DF9
:100620000E94941283E034C04C3008F046C084E04D
:10063000F7018083C60102979C01220F331F820FAE
:10064000931F88559A4FFC01208130E0F901EE0F8D
:10065000FF1F2E0F3F1FF901ED57FA4F208126FD96
:100660002CC020E639E040E252E0B6010F900F9036
:10067000DF91CF911F910F91FF90EF90DF90CF907E
:10068000BF900C9414158EEE8B0D8230B0F486E082
:10069000F701808312C082E891E00F900F90DF9104
:1006A000CF911F910F91FF90EF90DF90CF90BF906F
:1006B0000C94800B8F7B80832ACF0F900F90DF915B
:1006C000CF911F910F91FF90EF90DF90CF90BF904F
:1006D0000895EF92FF920F931F93CF93DF93D82F3C
:1006E0008B01C42F6F3F8FEF7807B9F081E08093C3
:1006F000E003D09302041092E1031092030487E711
:1007000095E00E940D1481E00E94680A8091B10377
:100710009091B2030E94001302C000E010E08091AB
:10072000DF038111FCCF2C2FC13208F020E281E0E1
:100730008093DF038093DE039FEF9093DD0310929D
:10074000DC03920F9093DB038093BA038091BA038A
:100750009D2F990F892B8093BA038091B903813023
:1007600061F41092B9038091BA038093BB00809129
:10077000BC0083FDF8CF85EC01C085EE8093BC0002
:100780008091DF038130E1F38091DC03821710F464
:100790002091DC03ABEBB3E047E256E0FA018E2F89
:1007A000841B821718F48D918193F9CF109248061B
:1007B00020934706EC2EF12C30E0E216F306A1F46C
:1007C000D09358030093590300E010E00E151F0565
:1007D000ACF487E795E00E94BD13F801E85AFC4F9E
:1007E00082830F5F1F4FF2CF2E153F051CF483E964
:1007F00091E002C08BEB91E00E94800BCE5F6C2FEA
:1008000070E048E553E087E7DF91CF911F910F91AA
:10081000FF90EF900C94330B6F927F928F929F9288
:10082000AF92BF92CF92DF92EF92FF920F931F93FE
:10083000CF93DF93CDB7DEB729970FB6F894DEBF1D
:100840000FBECDBF262F8A01863799F1F0F48D3681
:1008500009F4F1C180F4893609F433C28B3609F00A
:1008600056C580EF90E00E94630A8CE690E00E94FB
:10087000630A1EEFC8C1803709F40BC1853709F43C
:1008800038C28F3609F043C557C1813C09F4F0C224
:1008900038F4883709F4CEC08A3709F436C137C531
:1008A000833C09F486C308F453C3843C09F473C43D
:1008B0002EC5DA0111968C91382F387185FF03C04F
:1008C00082EE91E05CC0FA018081383089F170F4E9
:1008D00031111DC591E09093E003809302041092C2
:1008E000E1031092030432E0F32E06C0303101F12F
:1008F000383109F458C00BC5F21690F4F801EF0D29
:10090000F11D81816081F0E88F9F6019112487E7D4
:1009100095E029870E940D14F394F3942985ECCF78
:1009200081E00E94680A83E191E00197F1F7EFC44A
:10093000D80113969C91139712964C91263071F41E
:10094000642FB0E89B9F60191124F80125819481E0
:10095000492FF0E82F9F4019112405C020E8929FED
:10096000401911246FEF383021F470E00E946903C0
:10097000CEC4E0910001E7302CF082E092E00E94CA
:10098000800BC5C4EF5FE09300010E2E000CFF0B3F
:100990009F01220F331FE20FF31FE05EFC4F8083A5
:1009A00061834283B4C430910001131624F08FEFA9
:1009B00080930001ACC420E0632F032E000C770B62
:1009C000422F50E0641775076CF0FA01EE0FFF1F1D
:1009D0004E0F5F1FFA01E05EFC4F9081981709F1FE
:1009E0002F5FEECF20E01DC02830D0F4DC0111963F
:1009F000AD01440F551FA40FB51FA05EBC4F4C9115
:100A0000FC01EE0FFF1F8E0F9F1FFC01E05EFC4FED
:100A1000408311968C911197818312968C918283D9
:100A20002F5F822F90E068177907F4F631503093EA
:100A300000016DC4DA012C9111968C91B0E88B9F66
:100A4000C0011124820F911D009721F09093B203F1
:100A50008093B10380912606811159C410E08EEE77
:100A6000810F823028F466E070E0812F0E944602F8
:100A70001F5F1631A1F781E0809326061092480689
:100A8000109247061092E103109203040E94F6149C
:100A90003EC4653008F43BC4FA01F0809181428184
:100AA000538124818EEF8F0D8C3008F030C46F2D70
:100AB00070E0DB011297FD01EE0FFF1FAE0FBF1FAD
:100AC000A855BA4FEC91F0E08F01000F111FE00F15
:100AD000F11FED57FA4F808186FF02C08F7B808324
:100AE000F0E82F9F90011124250F311D80E8489FC9
:100AF000A0011124490F511DCD010E94141564E07D
:100B000070E08F2D0E94460202C4623008F4FFC3D9
:100B1000DA012C9111968C91B0E88B9FC0011124C1
:100B2000820F911D8A30910514F48AE090E0909331
:100B3000020180930101EBC3623008F4E8C3FA01BB
:100B4000618170E02230A1F08281F0E88F9FC001C6
:100B50001124682B792B233059F0DA0113968C91EC
:100B600090E090E4899F902D88271124682B792BA1
:100B7000F80180810E941D01CAC3113009F050C0E4
:100B800083E090E00E94630A88E090E00E94630A9C
:100B90001C3040F484E090E00E94630A8EE090E014
:100BA0000E94630A80EF810F823040F486E090E07B
:100BB0000E94630A81E090E00E94630A8FE790E060
:100BC0000E94630A1F5F143109F49DC31231D8F4E7
:100BD00060E084E194E00E948D1081E090E00E944A
:100BE000630A61E084E194E00E948D1081E090E06E
:100BF0000E94630A65E784E194E00E948D1081E021
:100C000090E00E94630A84EF810F883008F0B5CF2E
:100C100082E090E00E94630A8AE090E00E94630A0A
:100C20008DEF810F823008F4ABCF89EF810F8330D5
:100C300008F0AECFA5CF662309F469C3DA010C91A1
:100C400080EF90E00E94630A8EE690E00E94630AC3
:100C5000602F84E194E00E948D10063108F053C3A8
:100C600010E0F801E65CFC4F608184E194E00E94B2
:100C70008D10000F111FF801EB57FC4F00811181FF
:100C8000C8018F7799270E94630AC8018078892B51
:100C900049F0C801880F892F881F990B8F779927F2
:100CA0000E94630AC8018827907C892B09F42BC312
:100CB000C801990F880B990F982F881F8F77992754
:100CC00075C180EF90E00E94630A8AE690E00E947E
:100CD000630A02EF1FEF083010F4C80102C08FE76B
:100CE00090E00E94630A0F5F1F4F0830110599F7CB
:100CF0000AC3FA019381828190FB87F990E0A0E01A
:100D0000B0E0782F6627552744278581948180FBA2
:100D100097F9892F90E0A0E0B0E0DC0199278827BF
:100D2000840F951FA61FB71F3185208530FB27F93B
:100D3000820F911DA11DB11D2781C68020FBC7F820
:100D4000D12CE12CF12CFE2CED2CDC2CCC24C80E6B
:100D5000D91EEA1EFB1E818161E08130C1F48081D1
:100D60000E94C41260E0D8018C910E94941283E02A
:100D700090E00197F1F761E0F80180810E94941200
:100D8000C6010E94001360E0D8018C9113C0F801E5
:100D900080810E94941283E090E00197F1F760E077
:100DA000D8018C910E949412C6010E94001361E048
:100DB000F80180810E949412D8011B969C911B9788
:100DC0001A968C9190FB87F990E0A0E0B0E0782F24
:100DD000662755274427F8018585948580FB97F978
:100DE000892F90E0A0E0B0E0DC0199278827840FEC
:100DF000951FA61FB71F3189208930FB27F9820F65
:100E0000911DA11DB11D3785268530FB27F9422F85
:100E100050E060E070E0762F652F542F44279A0150
:100E2000AB01280F391F4A1F5B1F60E080812987B3
:100E30003E834F8358870E94C41229853E814F818B
:100E40005885D80111966C9111978C910E94391296
:100E5000F801208129839A838B837C836D83AE0183
:100E60004F5F5F4F65E070E085E70E94330B4FC234
:100E700080EF90E00E94630A81E790E00E94630A9D
:100E800083E490E00E94630A81E390E00E94630A99
:100E90008DE290E00E94630AD8016C9170E080E0DE
:100EA00090E04AE00E94AE098DE290E00E94630A61
:100EB000F801618170E080E090E04AE00E94AE09B4
:100EC0008DE290E00E94630AD8011196FC90119780
:100ED0001C9161E0812F0E94C41260E08F2D0E945E
:100EE000C41260E0812F0E94941283E090E0019789
:100EF000F1F761E0812F0E94941283E290E0019764
:100F0000F1F760E0812F0E94941220E53DE240E07D
:100F100050E061E08F2D0E94391261157105810545
:100F2000910549F00E941F2420E030E048E652E499
:100F30000E94452604C060E070E08AEF93E420E060
:100F400030E040E251E40E9480240E94BE26D8C1D5
:100F5000FA01808180934E0210925002F89482E050
:100F60008093B0008093B10094E69093B300109208
:100F7000B20080937000789480934D0210925102D9
:100F800080914E0260E00E94C41281E080931F03B2
:100F900080EF90E00E94630A81E790E00E94630A7C
:100FA00083E490E00E94630A82E390E00E94630A77
:100FB000AAC1DA01FC908F2D90E0FC01E255FF4FB1
:100FC000E490FC01E656FF4FE491F0E0EE0FFF1FC6
:100FD000E057FF4FC590D49061E08F2D0E94C4125E
:100FE00060E08F2D0E94941262E170E080E090E05A
:100FF0000E940B1361E08F2D0E94941260E08F2DF0
:101000000E94C41220E233E0F60180818E2121F09B
:1010100021503109C9F766C020E931E0D6018C9131
:101020008E2121F421503109C9F75CC020E931E05B
:10103000F60180818E2121F021503109C9F752C07B
:10104000712C20E870E040E050E080E991E0E0E9B8
:10105000F1E068E230E0A0E98A2E99249394A12C73
:10106000B12CD6016C906E2081F5332371F168327A
:1010700099F48E179F0708F4FC01D501C4018E1B5B
:101080009F0BA109B10932E0B595A7959795879572
:101090003A95D1F7AC0107C0DF01A41BB50BA81727
:1010A000B90708F0722B30E03595279521153105E9
:1010B00049F4A72DB0E0A858BC4F18967C937394C0
:1010C00070E020E8615080E991E0019759F0362DF9
:1010D0006111C7CF61E08F2D0E94C41261E08F2D96
:1010E0000E94941260918003862F8F7780938003F3
:1010F000609182036F77F62E60938203682F70E011
:1011000080E090E00E941F2460937803709379033D
:1011100080937A0390937B036F2D70E080E090E0E2
:101120000E941F2460937C0370937D0380937E0351
:1011300090937F0380EF90E00E94630A81E790E044
:101140000E94630A83E192E00E949C09F801608199
:1011500070E080E090E04AE00E94AE0985E192E014
:101160000E949C09609178037091790380917A03C1
:1011700090917B030E9457168DE290E00E94630AD3
:1011800060917C0370917D0380917E0390917F0339
:101190000E945716B8C0DA018C91823009F48DC0D4
:1011A00048F4882391F0813009F099C088E0809359
:1011B000D70585C0833009F488C0843009F08FC01A
:1011C000FA0181810E94C50A8AC0109248061092D5
:1011D00047061092E103109203040E94F614109245
:1011E000D1058091D605823018F098E09093D10512
:1011F0008093D40562E370E080E090E00E940B13DE
:101200006091D7058CEC95E00E94991368EE73E02D
:1012100080E090E00E940B1360E38CEC95E00E946C
:101220001F0C8BE4E82E86E4F82EC7010197F1F736
:1012300060E38CEC95E00E941F0CC7010197F1F769
:1012400060E38CEC95E00E941F0C83E592E001972F
:10125000F1F760E28CEC95E00E941F0C6091D105E3
:10126000606240E08CEC95E00E94380C84E0809352
:10127000D20540E06CE08CEC95E00E94380C40E038
:1012800061E08CEC95E00E94380C9BE3E92E9FE135
:10129000F92EC7010197F1F782E08093D30540E072
:1012A00066E08CEC95E00E94380C40E062E08CEC4B
:1012B00095E00E94380CC70110C01092D70560E07D
:1012C0008CEC95E00E9499130AC040E061E08CEC40
:1012D00095E00E94380C8BE39FE10197F1F780EFD6
:1012E00090E00E94630A81E790E00E94630A87E130
:1012F00092E00E949C09D8016C9170E080E090E03F
:101300004AE00E94AE0987EF90E00E94630A2996A6
:101310000FB6F894DEBF0FBECDBFDF91CF911F9106
:101320000F91FF90EF90DF90CF90BF90AF909F9084
:101330008F907F906F900895009769F0FC01019065
:101340000020E9F73197AF01481B590BBC0184E13C
:1013500094E00C94FA0F80E090E008958F929F92B1
:10136000AF92BF920F931F93CF93DF93CDB7DEB7AA
:10137000A1970FB6F894DEBF0FBECDBF19A24230C1
:1013800008F44AE08E010F5D1F4F842E912CA12C92
:10139000B12CA50194010E94A725E62FB901CA012D
:1013A00001501109EA3014F4E05D01C0E95CD80194
:1013B000EC93232B242B252B61F7C8010E949C0959
:1013C000A1960FB6F894DEBF0FBECDBFDF91CF91CF
:1013D0001F910F91BF90AF909F908F9008958F9223
:1013E0009F92AF92BF92CF92DF92EF92FF920F93B4
:1013F0001F93CF93DF93FC01C081D1812091100412
:1014000030911104C217D3070CF04BC09E01220F7C
:10141000331FE0910E04F0910F04E20FF31F808060
:101420009180C170DD27F1E0CF27209719F404E601
:1014300010E002C00CE91FEF7A015B016C01040FA0
:10144000151FB801C4010E94420D892B99F40E0D9D
:101450001F1DB801C4010E94420D892B71F4B8010F
:101460006E0D7F1DC4010E94420D892BE9F023E01F
:1014700030E005C021E030E002C022E030E0F501BC
:10148000808191810196821793073CF0F5011182CA
:101490001082F60180819181019691838083CE0133
:1014A00005C081E090E002C08FEF9FEFDF91CF9108
:1014B0001F910F91FF90EF90DF90CF90BF90AF9072
:1014C0009F908F900895682F84E194E00C948D1084
:1014D000382F2091030490910204213208F049C072
:1014E0008091DF038111FCCF42E04093DF03309312
:1014F000DE033FEF3093DD031092DC032093DB0328
:10150000A2EEB3E04BEB53E0FA013E2F341B32174F
:1015100018F43D913193F9CF1092BA032091BA0398
:10152000990F922B9093BA039091B903913061F483
:101530001092B9039091BA039093BB009091BC00B4
:1015400093FDF8CF95EC01C095EE9093BC0090917F
:10155000DF039230E1F39091DD039F3F79F08091BA
:10156000DD03803241F08091DD03803331F084E08F
:1015700005C081E003C082E001C083E01092E10376
:10158000109203041092E0030895CF93DF93CDB738
:10159000DEB728970FB6F894DEBF0FBECDBF98E038
:1015A000E9E0F1E0DE01119601900D929A95E1F7E4
:1015B0009091D405981710F48FEF890FFE013196A2
:1015C000E80FF11DE80FF11D6081606840E08CECD0
:1015D00095E028960FB6F894DEBF0FBECDBFDF9121
:1015E000CF910C94380CFF920F931F93CF93DF93FE
:1015F00000D0CDB7DEB7082F10E0F801EA54FC4F59
:101600009081F62EF9220D541C4FF80190819F1500
:1016100011F12F2D30E03A832983A091F104B0918C
:10162000F2041097B1F0682FED91FC9111976F7053
:1016300060690190F081E02DCD01099522E030E054
:10164000AE014F5F5F4F62E070E081EF94E00E9477
:10165000860DF801F0820F900F90DF91CF911F91CE
:101660000F91FF900895EF92FF920F931F93CF93E6
:10167000DF93C82F8091F1049091F2040097C9F193
:101680007A018B01DC01ED91FC910190F081E02D5C
:1016900060EF09958091F1049091F204DC01ED91E5
:1016A000FC910190F081E02D6C2F0995E7010E0D62
:1016B0001F1DC017D10759F020E030E0AE0161E0F6
:1016C00070E081EF94E00E94860D2196F2CF809128
:1016D000F1049091F204DC01ED91FC910190F08114
:1016E000E02D67EFDF91CF911F910F91FF90EF9069
:1016F0000994DF91CF911F910F91FF90EF90089582
:10170000FC0101900020E9F73197BF01681B790BBC
:10171000AC0181E70C94330BCF93DF93FC01A081E4
:10172000B181109701F1EC01ED91FC9111970190BD
:10173000F081E02D69EFCD01099588819981DC0167
:10174000ED91FC910190F081E02D62E00995888196
:101750009981DC01ED91FC910190F081E02D65E033
:10176000DF91CF910994DF91CF910895E0914402E8
:10177000F0914502309709F009940895862F642F5F
:10178000E0914202F0914302309711F0A9010994CF
:101790000895CB01E0913402F0913502309709F0C1
:1017A00009940895862FE0913A02F0913B02309718
:1017B00011F0BA0109940895862FE0913C02F0914E
:1017C0003D02309711F0BA0109940895862FE091F7
:1017D0003602F0913702309711F0BA01099408955A
:1017E000862FE0913802F0913902309711F0BA015A
:1017F00009940895862FE0913E02F0913F023097C0
:1018000011F0BA0109940895862FE0914002F091F9
:101810004102309711F0BA010994089585ED809343
:10182000BC008091BC0084FDFCCF1092DF030895C2
:10183000009721F0805C9F4F0C948C0B08950F93C0
:101840001F93CF938C01C62F0E9499136C2F646055
:10185000C8010E9499136C2F6B7FC8010E949913D5
:1018600083EC90E00197F1F7CF911F910F910895CC
:10187000FF920F931F93CF93DF931F92CDB7DEB7E5
:101880008C01F62E962F907F692F642BC801498317
:101890000E941F0C80E1F89EB00111244981642B45
:1018A000C8010F90DF91CF911F910F91FF900C9481
:1018B0001F0C41E00E94380C81E090E008951F92D7
:1018C0000F920FB60F9211242F933F934F935F9374
:1018D0006F937F938F939F93AF93BF93CF93DF9338
:1018E000EF93FF9320914E0230E0F901E458FF4F4F
:1018F0008491F901E255FF4FD491F901E656FF4F6B
:10190000C491CC23A1F081110E946B12EC2FF0E066
:10191000EE0FFF1FE057FF4FA591B491EC91ED231F
:1019200031E020E009F430E0832F922F02C080E004
:1019300090E020915202309153022F5F3F4F30933D
:1019400053022093520220915102253618F026E0CE
:1019500020934D0220914D022430D9F128F42230F9
:1019600069F02330D9F060C0253009F453C0263027
:1019700009F05AC021E020931E0353C0009709F0DC
:1019800053C020915202309153022436310508F49D
:1019900043C010921E03109251021DC08130910568
:1019A00009F042C0E091510221E02E0F2093510234
:1019B000F0E02091520230915302EE0FFF1FE35BE3
:1019C000FD4F30872783109253021092520224E079
:1019D00029C00097B9F4E091510221E02E0F209325
:1019E0005102F0E02091520230915302EE0FFF1F9E
:1019F000E35BFD4F3087278310925302109252020F
:101A000023E010C020915202309153022536310557
:101A100058F007C0009741F41092530210925202FE
:101A200003C025E020934D02209150022223B9F0FB
:101A3000892B51F480914F02882321F080914F022D
:101A400061E009C02D9A0BC080914F02882331F0CC
:101A500080914F0260E00E94941201C02D98FF9186
:101A6000EF91DF91CF91BF91AF919F918F917F9136
:101A70006F915F914F913F912F910F900FBE0F90FB
:101A80001F901895CF92DF92EF92FF92CF93DF9342
:101A9000EC01072E000C880B990B0E9421246B018E
:101AA0007C0120E030E040E45FE30E94802420E0FD
:101AB00030E048E452E40E9445260E94B726C6174B
:101AC000D707D4F020E030E040EA5FE3C701B60179
:101AD0000E94802420E030E048E452E40E94452641
:101AE00020E030E040E85FE30E94D9250E94B7265D
:101AF00021E06C177D070CF420E0822F90E0DF914D
:101B0000CF91FF90EF90DF90CF9008952F923F926A
:101B10005F926F927F928F929F92AF92BF92CF927D
:101B2000DF92EF92FF920F931F93CF93DF937C018D
:101B30003901DA015C90232B19F466246A94762C1F
:101B40008A011A01260E371EC0E0D0E0812C912CAC
:101B500087E0C82ED12C0215130509F444C0861461
:101B6000970408F068C05801F70180819181FC0159
:101B7000A081B181F80121918F01E22F0C2E01C0CB
:101B8000EE0F0A94EAF7652D6E2B6F77ED91FC91BD
:101B900009958FEF881A980AD5016C9170E0C601FB
:101BA0008C1B9D0B02C0759567958A95E2F7562EA2
:101BB0002196C730D10578F28614970461F2F701B7
:101BC00080819181DC01ED91FC91652D6F77019011
:101BD000F081E02D0995BFEF8B1A9B0A551C552407
:101BE000551C2797E6CF209731F18614970418F5F6
:101BF000F70180819181DC01ED91FC9161E070E061
:101C000001C0660FCA95EAF7615065210190F08125
:101C1000E02DDF91CF911F910F91FF90EF90DF901A
:101C2000CF90BF90AF909F908F907F906F905F907C
:101C30003F902F900994DF91CF911F910F91FF90CA
:101C4000EF90DF90CF90BF90AF909F908F907F905C
:101C50006F905F903F902F900895DF92EF92FF92E8
:101C60000F931F93CF93DF93FC01E058FF4FD08079
:101C7000DD2009F45CC0319600811181D8011196F4
:101C8000FC901197EC90EC01C05CDF4F888199814A
:101C9000009709F44CC0DC01ED91FC910190F081BA
:101CA000E02D60EF099588819981DC01ED91FC912F
:101CB0000190F081E02D69E7099588819981DC0127
:101CC000ED91FC910190F081E02D6E2D09958881B8
:101CD0009981DC01ED91FC910190F081E02D6F2D57
:101CE00009957801B2E0EB0EF11C0D0D111DE01607
:101CF000F10661F020E030E0A70161E070E0CE0184
:101D00000E94860DEFEFEE1AFE0AF1CF88819981CD
:101D1000DC01ED91FC910190F081E02D67EFDF9106
:101D2000CF911F910F91FF90EF90DF900994DF9179
:101D3000CF911F910F91FF90EF90DF900895009742
:101D400011F00C942D0E08951F920F920FB60F9262
:101D500011242F933F934F935F936F937F938F93B0
:101D60009F93AF93BF93EF93FF938091B900887FC8
:101D7000803609F49CC068F5883209F45BC090F4A1
:101D8000803109F454C038F4882309F4F6C088304F
:101D900009F44DC0F6C0883109F44CC0803209F412
:101DA0005DC0EFC0803409F468C048F4803309F4A2
:101DB00055C0883309F0E5C08093DD03D8C0803575
:101DC00009F44FC0883509F45DC0883409F0D9C0E2
:101DD000D6C0883909F4C7C0A8F4883709F467C0A9
:101DE00038F4883609F463C0803709F460C0C9C08C
:101DF000883809F4B8C0803909F45FC0803809F028
:101E0000C0C05BC0803B09F486C038F4803A09F456
:101E100066C0883A09F47FC0B4C0803C09F4A7C00A
:101E2000883C09F4A4C0883B09F48AC0AAC0809108
:101E3000BA0310C09091DC038091DB03981770F512
:101E4000E091DC0381E08E0F8093DC03F0E0E55449
:101E5000FC4F80818093BB0085EC86C08093DD03BE
:101E60008EC0E091DC0381E08E0F8093DC038091D3
:101E7000BB00F0E0E554FC4F80839091DC0380913F
:101E8000DB036EC0E091DC0381E08E0F8093DC0306
:101E90008091BB00F0E0E554FC4F80838091DE032D
:101EA00081116DC081E08093B90384EA61C083E051
:101EB0008093DF0310921E06CFCF80911E068032E2
:101EC00008F051C0E0911E0681E08E0F80931E063F
:101ED0008091BB00F0E0E250FA4F8083BDCF85ECEB
:101EE0008093BC001092DF0380911E06803230F494
:101EF000E0911E06F0E0E250FA4F108260911E065B
:101F000070E0E091FC05F091FD058EEF95E00995FC
:101F100010921E0636C084E08093DF031092FB050A
:101F20001092FA05E091F805F091F9050995809174
:101F3000FA05811105C081E08093FA051092D80559
:101F4000E091FB0581E08E0F8093FB05F0E0E85205
:101F5000FA4F80818093BB009091FB058091FA0538
:101F6000981708F479CF85E88093BC000AC085EC07
:101F70008093BC001092DF0304C01092DD030E9426
:101F80000E0CFF91EF91BF91AF919F918F917F9137
:101F90006F915F914F913F912F910F900FBE0F90D6
:101FA0001F9018954091FA05262F30E0240F311D1F
:101FB00021323105DCF42091DF032430C9F4FC0127
:101FC00080E090E0861758F43091FA052191DC0109
:101FD000A852BA4FA30FB11D2C930196F3CF809155
:101FE000FA05680F6093FA0580E0089581E008958E
:101FF00082E00895CF92DF92EF92FF920F931F93AA
:10200000CF93DF936C017A018B01C0E0D0E0CE1555
:10201000DF0589F0D8016D918D01D601ED91FC911C
:102020000190F081E02DC6010995892B11F47E0104
:1020300002C02196ECCFC701DF91CF911F910F9184
:10204000FF90EF90DF90CF900895FC01538D448D69
:10205000252F30E0842F90E0821B930B541710F053
:10206000CF96089501970895FC01918D828D981760
:1020700061F0828DDF01A80FB11D5D968C91928D6C
:102080009F5F9F73928F90E008958FEF9FEF089569
:10209000FC01918D828D981731F0828DE80FF11D32
:1020A000858D90E008958FEF9FEF0895FC01918D4D
:1020B000228D892F90E0805C9F4F821B91098F7346
:1020C0009927089584E194E00E94561021E0892B1D
:1020D00009F420E0822F0895FC01848DDF01A80F10
:1020E000B11DA35ABF4F2C91848D90E001968F7340
:1020F0009927848FA689B7892C93A089B1898C915F
:1021000080648C93938D848D981306C00288F38924
:10211000E02D80818F7D80830895EF92FF920F9351
:102120001F93CF93DF93EC0181E0888F9B8D8C8D83
:10213000981305C0E889F989808185FD24C0F62EB1
:102140000B8D10E00F5F1F4F0F731127E02E8C8D4A
:10215000E8120CC00FB607FCFACFE889F989808134
:1021600085FFF5CFCE010E946C10F1CF8B8DFE0163
:10217000E80FF11DE35AFF4FF0820B8FEA89FB89CC
:102180008081806207C0EE89FF896083E889F989D0
:1021900080818064808381E090E0DF91CF911F9106
:1021A0000F91FF90EF900895CF93DF93EC01888D0E
:1021B0008823C9F0EA89FB89808185FD05C0A8894B
:1021C000B9898C9186FD0FC00FB607FCF5CF8081D1
:1021D00085FFF2CFA889B9898C9185FFEDCFCE011B
:1021E0000E946C10E7CFDF91CF91089580E090E0DE
:1021F000892B29F00E94621081110C94000008952F
:102200003FB7F8948091220690912306A09124066E
:10221000B091250626B5A89B05C02F3F19F0019661
:10222000A11DB11D3FBFBA2FA92F982F8827820F5C
:10223000911DA11DB11DBC01CD0142E0660F771FAC
:10224000881F991F4A95D1F708950E944729EF9258
:10225000FF920F931F93CF93DF93EC017B018A01D1
:1022600088819981009729F02A813B8124173507BD
:10227000F8F4B8016F5F7F4F0E947D28009759F0F6
:10228000998388831B830A832C813D81232B81F4CE
:10229000FC0110820DC088819981009711F00E9485
:1022A000E527198218821D821C821B821A8207C0B0
:1022B0001D830C83B701888199810E945529CE0125
:1022C000DF91CF911F910F91FF90EF900895FC0146
:1022D0001182108213821282158214826115710597
:1022E00051F0FB0101900020E9F73197AF01461B47
:1022F000570B0C9427110895BF92CF92DF92EF9263
:10230000FF920F931F93CF93DF937C016B01EA0140
:1023100089012417350720F48D2FE901042F182F88
:1023200061E871E0C7010E946711D60114968D9192
:102330009C911597C817D907C8F58017910708F41D
:102340008C01D601ED91FC911197E00FF11FB08047
:1023500010824D915C91BA016C0F7D1F6115710562
:1023600061F0FB0101900020E9F73197AF01461BB6
:10237000570BC7010E94271113C0F701808191817B
:10238000009711F00E94E527D70111961C921E922A
:1023900015961C921E92149713961C921E921297D9
:1023A000D601ED91FC91E00FF11FB082C701DF91E2
:1023B000CF911F910F91FF90EF90DF90CF90BF9042
:1023C00008951F920F920FB60F9211242F933F93EF
:1023D0004F935F936F937F938F939F93AF93BF932D
:1023E000EF93FF9384E194E00E946C10FF91EF91D2
:1023F000BF91AF919F918F917F916F915F914F911D
:102400003F912F910F900FBE0F901F9018951F9224
:102410000F920FB60F9211242F938F939F93EF93E8
:10242000FF93E0912404F09125048081E0912A0437
:10243000F0912B0482FD12C0908180912D048F5F5A
:102440008F7320912E04821751F0E0912D04F0E05B
:10245000EC5EFB4F958F80932D0401C08081FF912E
:10246000EF919F918F912F910F900FBE0F901F9022
:1024700018950F931F9390E0FC01E255FF4F749164
:10248000FC01E656FF4FE491662311F0672F01C06F
:1024900060E0F0E0EE0FFF1FE057FF4F8591949151
:1024A00089019A013F70462F672F0E947A176115A4
:1024B00071058105910549F0DC01CB010196A11D53
:1024C000B11DBC01CD019F7003C060E070E0CB0185
:1024D0001F910F910895833081F028F4813099F095
:1024E0008230A1F008958730A9F08830B9F08430A7
:1024F000D1F4809180008F7D03C0809180008F7720
:1025000080938000089584B58F7702C084B58F7D55
:1025100084BD08958091B0008F7703C08091B00092
:102520008F7D8093B00008951F93CF93DF93282F62
:1025300030E0F901E458FF4F8491F901E255FF4F73
:10254000D491F901E656FF4FC491CC23C9F0162F60
:1025500081110E946B12EC2FF0E0EE0FFF1FEE587E
:10256000FF4FA591B4918FB7F894111105C09C91BC
:10257000ED2FE095E92302C0EC91ED2BEC938FBF9A
:10258000DF91CF911F910895CF93DF9390E0FC01ED
:10259000E255FF4F2491FC01E656FF4F84918823BA
:1025A00061F190E0880F991FFC01E859FF4FC59138
:1025B000D491FC01EE58FF4FA591B491611109C06F
:1025C0009FB7F8948881209582238883EC912E23ED
:1025D0000BC0623061F49FB7F8943881822F8095E8
:1025E00083238883EC912E2B2C939FBF06C08FB73B
:1025F000F894E8812E2B28838FBFDF91CF91089527
:102600008230910538F0880F991F880F991F059720
:102610000197F1F708958F929F92AF92BF92CF9258
:10262000DF92EF92FF926B017C010E9400114B013F
:102630005C01C114D104E104F104F1F00E94001125
:10264000DC01CB0188199909AA09BB09883E93408E
:10265000A105B10570F321E0C21AD108E108F10823
:1026600088EE880E83E0981EA11CB11CC114D10411
:10267000E104F10419F7DDCFFF90EF90DF90CF90E8
:10268000BF90AF909F908F9008951F920F920FB6BA
:102690000F9211242F933F938F939F93AF93BF93E8
:1026A0008091490290914A02A0914B02B0914C0254
:1026B0003091210623E0230F2D3720F40196A11D30
:1026C000B11D05C026E8230F0296A11DB11D209360
:1026D00021068093490290934A02A0934B02B09343
:1026E0004C028091220690912306A0912406B0917D
:1026F00025060196A11DB11D809322069093230605
:10270000A0932406B0932506BF91AF919F918F911E
:102710003F912F910F900FBE0F901F9018951F9211
:102720000F920FB60F9211240F900FBE0F901F90B3
:102730001895FC01248131E03093E00320930204DA
:102740001092E103109203048385682B87E795E0DC
:102750000E940D1481E00C94680A0895E0914806E7
:1027600080914706E81730F4F0E0E95DF94F808189
:1027700090E008958FEF9FEF089590914806809123
:102780004706981750F4E92FF0E0E95DF94F2081F2
:1027900030E09F5F9093480602C02FEF3FEFC901E2
:1027A00008958091470690E020914806821B910988
:1027B0000895089580E090E00895CF92DF92EF921F
:1027C000FF920F931F93CF93DF937C01262F972FB8
:1027D0008A018091E003882391F0C62FD72F6E01E4
:1027E000C40ED51ECC15DD0571F06991D701ED91B0
:1027F000FC910190F081E02DC7010995F3CF642F82
:10280000822F0E94D20FC801DF91CF911F910F91AB
:10281000FF90EF90DF90CF900895CF93DF931F92BA
:10282000CDB7DEB769832091E0032223D1F0209158
:102830000304203240F021E030E0FC0133832283A6
:1028400080E090E015C08091E103E82FF0E0EE51C8
:10285000FC4F998190838F5F8093E1038093030401
:1028600005C061E0CE0101960E94D20F81E090E0A8
:102870000F90DF91CF910895EF92FF921F93CF9326
:10288000DF93CDB7DEB72C970FB6F894DEBF0FBE3F
:10289000CDBFBC01CE0101960E9467116CE172E0D0
:1028A000CE0107960E9467114B855C858D819E81C4
:1028B000EF80F8848417950768F089819A810097E2
:1028C00049F0E114F10431F0B7010E945C2911E0F4
:1028D000892B09F010E0C7010E94E527112309F4B4
:1028E00041C023E030E042E050E0BE016F5F7F4F27
:1028F000CE0107960E947C118F819885009721F068
:102900000E94DE23862F01C080E00E94C50A8F81CD
:1029100098850E94E5272D813E8143E050E0BE016D
:102920006F5F7F4FCE0107960E947C114B855C85BF
:102930006F8178858CEC95E00E94FA0F8F819885E5
:102940000E94E52780EF90E00E94630A81E790E013
:102950000E94630A8FE192E00E949C0987EF90E059
:102960000E94630A89819A810E94E5272C960FB6FE
:10297000F894DEBF0FBECDBFDF91CF911F91FF90C6
:10298000EF900895CF9380912606882329F0109226
:1029900026068FEF80930001109246021092B60334
:1029A0001092B303109247021092B7031092B4032F
:1029B000109248021092B8031092B503C0E082EF63
:1029C0008C0F883018F462E070E002C061E070E0C3
:1029D0008C2F0E944602CF5FC63189F710923903CF
:1029E0001092380310921F03CF9108951092DF03C5
:1029F00081E08093DE031092B90361E082E10E94DE
:102A0000941261E083E10E949412E9EBF0E080818E
:102A10008E7F808380818D7F808388E48093B8005F
:102A200085E48093BC000895DF92EF92FF920F93AC
:102A30001F93CF93DF93EC01D62E7A018901888111
:102A40008C3008F06AC061E08D2D0E94C41288812C
:102A5000E82FF0E09F01220F331FE20FF31FED5725
:102A6000FA4F9D2D9F732081207CD22ED92AD082AF
:102A700060E272E0AB014E195F0957FF02C04D5F83
:102A80005F4F5595479555954795498340E659E0E1
:102A90009A01201B310B37FF02C02D5F3F4F359548
:102AA0002795359527952A836CE00E9407279CE09F
:102AB000899FB001112440E050E09A01260F371F92
:102AC000F901EE0FFF1F2E0F3F1FF901ED57FA4FCF
:102AD000908196FD16C04F5F5F4F4C30510569F7EE
:102AE00081110FC01092800082E0809381001092CB
:102AF000850010928400B19A80916F00826080936B
:102B00006F00E881F0E0CF01880F991FE80FF91FEF
:102B1000ED57FA4F8081806480838881DF91CF9167
:102B20001F910F91FF90EF90DF9008951F920F92E9
:102B30000FB60F9211242F933F934F935F936F9390
:102B40007F938F939F93AF93BF93EF93FF93809166
:102B5000490687FF05C010928500109284001BC0B3
:102B600020914906022E000C330B8091A70590E0BE
:102B70002817390784F480914906082E000C990B18
:102B8000FC01EE0FFF1F8E0F9F1FFC01ED57FA4F48
:102B9000808186FD15C0809149068F5F809349062C
:102BA00020914906022E000C330B8091A70590E07E
:102BB00028173907C4F4809149068C3064F113C09A
:102BC00080914906082E000C990BFC01EE0FFF1FA7
:102BD0008E0F9F1FFC01ED57FA4F808160E08F73CD
:102BE0000E949412D8CF8091840090918500049621
:102BF00080349C4918F480E49CE905C080918400ED
:102C000090918500049690938900809388008FEFBF
:102C1000809349063BC020918400309185008091CB
:102C20004906082E000C990BFC01EE0FFF1F8E0FBA
:102C30009F1FFC01ED57FA4F81819281820F931FF4
:102C4000909389008093880080914906082E000C9B
:102C5000990BFC01EE0FFF1F8E0F9F1FFC01ED571C
:102C6000FA4F808186FF12C080914906082E000C21
:102C7000990BFC01EE0FFF1F8E0F9F1FFC01ED57FC
:102C8000FA4F808161E08F730E949412FF91EF915F
:102C9000BF91AF919F918F917F916F915F914F9174
:102CA0003F912F910F900FBE0F901F9018958F920C
:102CB0009F92AF92BF92CF92DF92EF92FF92CF930B
:102CC000DF936B017C019B01AC010E94F2268823FB
:102CD00019F087E292E027C046015701E894B7F85F
:102CE0002FEF3FEF4FE75FE7C501B4010E94F226E7
:102CF00081110DC02FEF3FEF4FE75FE7C501B40132
:102D00000E941A2418161CF48BE292E00CC02FEFDC
:102D10003FEF4FE75FE4C701B6010E94ED261816AA
:102D200074F48FE292E0DF91CF91FF90EF90DF900B
:102D3000CF90BF90AF909F908F900C949C092FEFF5
:102D40003FEF4FE75FECC701B6010E941A2487FDF1
:102D5000E8CF20E030E0A901C701B6010E941A24A3
:102D600087FF11C0E0911404F09115040190F081E7
:102D7000E02D6DE284E194E00995EC01F7FAF0941E
:102D8000F7F8F09402C0C0E0D0E02AE037ED43EA63
:102D90005BE3C701B6010E94D9254B015C010E948B
:102DA000BE266B017C010E941F249B01AC01C50162
:102DB000B4010E94D8254B015C014AE0C701B6016D
:102DC0000E94AE09C80FD91FE0911404F0911504B8
:102DD0000190F081E02D6EE284E194E00995C80F46
:102DE000D91F20E030E040E251E4C501B4010E9467
:102DF00080244B015C010E94BE266B01E12CF12C6A
:102E00004AE0C701B6010E94AE09C80FD91FC70129
:102E1000B6010E941F249B01AC01C501B4010E94B0
:102E2000D82520E030E040E251E40E9480240E9456
:102E3000BE2680E090E04AE00E94AE098C0F9D1F04
:102E4000DF91CF91FF90EF90DF90CF90BF90AF9048
:102E50009F908F9008951F93CF93DF93182FEB01CE
:102E60008091F6049091F7046817790748F460910F
:102E7000F4047091F504C60FD71F188380E018C0C2
:102E8000E0912305F0912405309711F481E010C002
:102E900081E08093F30480910F05909110050995CE
:102EA0008091F6049091F704C817D90778F7DFCF1F
:102EB000DF91CF911F910895CF93DF93EC01FB0138
:102EC00020E030E0CF01861B970B2C173D0778F4EC
:102ED000DB01A20FB31F9C91908311964C914795F3
:102EE00044274795942B91932E5F3F4FEBCFDF9173
:102EF000CF910895CF92DF92EF92FF920F931F939D
:102F0000E82FF92F05C0015011092109310961F19C
:102F1000908196239417B9F305C001501109210936
:102F2000310911F1908196239413F7CFC12CD12C44
:102F3000E12CF12C0AC08FEFC81AD80AE80AF80A67
:102F40000C151D052E053F0579F080818623841719
:102F500091F36C2D7D2D8E2D9F2D1F910F91FF9044
:102F6000EF90DF90CF90089560E070E080E090E017
:102F70001F910F91FF90EF90DF90CF900895CF9326
:102F8000DF93CDB7DEB72A970FB6F894DEBF0FBE3A
:102F9000CDBF789484B5826084BD84B5816084BDE2
:102FA00085B5826085BD85B5816085BD80916E00E7
:102FB000816080936E001092810080918100826018
:102FC0008093810080918100816080938100809155
:102FD00080008160809380008091B1008460809344
:102FE000B1008091B00081608093B00080917A0040
:102FF000846080937A0080917A00826080937A0066
:1030000080917A00816080937A0080917A00806854
:1030100080937A001092C10020E1F22EF0923105E7
:1030200080913205909133050E94E527009131058A
:1030300010E0C80101960E945027909333058093B9
:103040003205FC01E00FF11F10822AE0DC012C9315
:1030500021E011962C93A8014250510960E771E0DC
:1030600002960E946A298CE394E190933502809342
:1030700034028DE191E0909341028093400287EB0E
:1030800090E090933F0280933E0284E990E0909319
:103090003D0280933C028CE890E090933B02809349
:1030A0003A0286E492E090933902809338028CE0F1
:1030B00094E0909343028093420282EC94E19093D7
:1030C000450280934402E0912404F091250482E0BB
:1030D0008083E0912404F09125041082E091200483
:1030E000F09121041082E0912204F0912304F082F7
:1030F00010922C04E0912804F091290486E080834A
:10310000E0912604F0912704808180618083E09122
:103110002604F0912704808188608083E091260452
:10312000F0912704808180688083E0912604F091EB
:10313000270480818F7D808380917605811150C026
:1031400061E08DE00E94C41262ED70E080E090E0EA
:103150000E940B1361E08DE00E94941268E270E01F
:1031600080E090E00E940B1360E08DE00E949412DA
:1031700062ED70E080E090E00E940B1361E08DE072
:103180000E94941268E270E080E090E00E940B13CD
:1031900060E08DE00E9494126AEF70E080E090E0C1
:1031A0000E940B1310E062ED70E080E090E00E945E
:1031B0000B1361E08DE00E94941268E270E080E001
:1031C00090E00E940B1360E08DE00E9494121F5F5C
:1031D000153049F76DE770E080E090E00E940B1336
:1031E00084E194E09093300580932F059093F2044E
:1031F0008093F10481EF94E00E948C0B81EB94E0CA
:103200000E942D0E0E94C21422242394312C8091FE
:103210004602882341F069B18091B60368236C7F30
:1032200080E00E94F30A80914702882371F063B125
:1032300096B1B0E49B9FC00111246F73862B6091FF
:10324000B703682381E00E94F30A80914802882333
:1032500051F066B16C73669566958091B8036823EA
:1032600082E00E94F30A11E080912F0590913005D1
:10327000DC01ED91FC910084F185E02D0995892B0D
:1032800009F4D0C180912F0590913005DC01ED91BA
:10329000FC910284F385E02D09959C018F3FBFEFDF
:1032A0009B0711F3982F8091FC04882309F492C0A6
:1032B000973F09F07EC01092FC04A091F404B091F5
:1032C000F5046C916137C1F1693709F05CC0E09198
:1032D0002905F0912A05309739F28091FD049091EB
:1032E000FE048330910538F420E030E040E050E007
:1032F00060E070E01BC0BD016D5F7F4F03970E94CF
:103300005C17BC016D5F7F4F80E00E942B17E0913E
:10331000F404F091F5049F012D5F3F4F428150E08E
:10332000618170E0E0912905F0912A0580910B05FB
:1033300090910C05099598CF8091250590912605CF
:10334000892B09F491CFBD016F5F7F4F8091FD0400
:103350009091FE0401970E945C17BC016F5F7F4F44
:1033600080E00E942B176091F4047091F5046F5F68
:103370007F4FE0912505F0912605809111059091F0
:103380001205099571CFE0912705F0912805309736
:1033900009F46ACF9D012F5F3F4F4091FD0450918A
:1033A000FE0441505109809113059091140509952F
:1033B0005BCF6091FD047091FE04822F0E942B1759
:1033C0008091FD049091FE0401969093FE048093F9
:1033D000FD044ACF6091FA047091FB0461157105F8
:1033E00009F4AFC027FDADC0615071097093FB04B3
:1033F0006093FA04822F0E942B178091FA04909117
:10340000FB04892B09F030CF8091F804882309F45C
:103410002BCF803D09F47FC030F4803939F1803CF6
:1034200009F466C08BC0843FE1F1853F09F44DC0CB
:10343000803E09F083C0E0911705F09118053097A0
:1034400009F47CC0A091F404B091F5048C9111961C
:103450004C9150E020E8829F400D511D1124609155
:10346000F9048091FF049091000567C0E09119056F
:10347000F0911A05309709F461C0A091F404B0915D
:10348000F5048C9111964C9150E030E8839F400DEB
:10349000511D11246091F90480910105909102055C
:1034A0004CC0E0911F05F0912005309709F446C00B
:1034B000A091F404B091F5044C9150E011966C91F8
:1034C000809107059091080538C0E0912105F091A1
:1034D0002205309799F1A091F404B091F5044C9134
:1034E00050E011966C918091090590910A0525C0D4
:1034F000E0911B05F0911C05309701F1A091F404B7
:10350000B091F5044C9150E06091F904809103056D
:103510009091040512C0E0911D05F0911E053097B1
:1035200069F0A091F404B091F5044C9150E06091E1
:10353000F904809105059091060509951092F8040B
:1035400093CE903F30F4822F8F708093F904922FA6
:10355000907F903F89F158F4903C39F118F49039FC
:10356000E9F082CE903D09F1903EC1F07DCE993FC9
:1035700009F44BC028F48CE0890F823078F074CEC7
:103580009F3F09F071CE1092FB041092FA04109242
:10359000F8041092F90480E090E015C0A2E0B0E0D9
:1035A000B093FB04A093FA0404C03092FB04209271
:1035B000FA049093F80458CE1093FC041092FE0481
:1035C0001092FD0451CE2091F6043091F704821739
:1035D000930748F4E091F404F091F504E80FF91F23
:1035E00010820196F0CF1092FC041092FE0410920B
:1035F000FD04E0912D05F0912E05309709F434CEAD
:1036000080911505909116050BC0E0912B05F09166
:103610002C05309709F428CE80910D0590910E0568
:10362000099522CE8FB7F8940091490210914A0271
:1036300020914B0230914C028FBF009354031093A2
:103640005503209356033093570380915003909174
:103650005103A0915203B091530340910101509145
:103660000201052E000C660B770B081B190B2A0BA9
:103670003B0B401751076207730730F0F0901F03B0
:10368000FF2009F4F2C2AFC0840F951FA61FB71F19
:103690008093500390935103A0935203B09353032C
:1036A0000AE313E082EFF82EB7E0BF1508F476C006
:1036B000F8018081823009F071C0809138039091C7
:1036C00039030F2C02C0959587950A94E2F780FF85
:1036D00065C08F2D806480937C0080917A00806427
:1036E00080937A0080917A0086FDFCCF209178004B
:1036F0008091790030E0382B3E832D838091F10456
:103700009091F204009709F449C0DC01ED91FC911D
:103710000190F081E02D2115304478F46F2D606E1A
:10372000099522E030E0AE014B5F5F4F62E070E050
:1037300081EF94E00E94860D31C060EF0995809181
:10374000F1049091F204DC01ED91FC910190F08183
:10375000E02D6FE609958091F1049091F204DC016F
:10376000ED91FC910190F081E02D6F2D099522E003
:1037700030E0AE014B5F5F4F62E070E081EF94E0BC
:103780000E94860D8091F1049091F204DC01ED918C
:10379000FC910190F081E02D67EF0995F3940F5FA4
:1037A0001F4FB8E0FB1280CF8091000187FD66CFEC
:1037B00010E0E12FF0E080910001082E000C990B41
:1037C0008E179F070CF45ACFCF01880F991FE80F6F
:1037D000F91FE05EFC4F618170E0428180810E94B0
:1037E00069031F5FE6CFE4E5F2E0F0930F04E09396
:1037F0000E048091510290E0909311048093100484
:1038000080911E0390E090931304809312048091A2
:103810004D02853009F029C28091560290915702DD
:10382000885891098D35910588F480915102843032
:1038300041F480915802909159028097479708F47B
:1038400030C280915102843408F012C2809151023A
:103850008A3108F452C08091540290915502843FFD
:10386000914080F410920D0410920C048FEF9FEFA2
:10387000DC018093080490930904A0930A04B09398
:103880000B0459C0809156029091570285974B972F
:10389000A0F5EAE5F2E082E090E0812C912C540161
:1038A000AC014F5F5F4F2091510230E04217530748
:1038B0005CF4DF0112972D913C912750310927309C
:1038C000310508F437C2CA01019795958795909301
:1038D0000D0480930C040C972CF410920D0410929C
:1038E0000C040BC08092080490920904A0920A0470
:1038F000B0920B0484E090E036C3809151028A318B
:1039000008F44CC08091540290915502803293404B
:1039100008F4A8CF8091560290915702C6978697D7
:1039200008F425C23BC08092080490920904A0923A
:103930000A04B0920B048BE090E015C32081318122
:10394000255231092B31310508F021C2880C991C10
:10395000AA1CBB1C689480F802963496AC014F5F99
:103960005F4F2091510230E04217530754F4DF01BA
:1039700012972D913C912C5031092B303105F0F2EA
:10398000CA0101979595879590930D0480930C0437
:103990000C974CF610920D0410920C048091510279
:1039A000823208F44DC080915602909157020697DA
:1039B000079708F045C0EAE5F2E082E090E040E0D9
:1039C00050E0BA016C01BFEFCB1ADB0A2091510223
:1039D00030E0C216D306DCF4DF0112972D913C9142
:1039E00011972E5131092731310508F0DDC1440FFF
:1039F000551F661F771F4160208131813496235007
:103A000031092530310510F40296DCCFC60101974B
:103A10009595879590930D0480930C0440972CF412
:103A200010920D0410920C040BC0409308045093A4
:103A3000090460930A0470930B048CE090E093C235
:103A40001C821B823A822982809151028D3008F4B7
:103A50006EC049E753E0BE016D5F7F4FCE01019616
:103A60000E94EF09892B09F062C049E753E0BE01CB
:103A70006D5F7F4FCE0101960E94EF09019709F01B
:103A800056C049E753E0BE016D5F7F4FCE010196FE
:103A90000E94EF09892B09F04AC0812C912C540116
:103AA00000E010E08091510290E029813A812817CE
:103AB00039075CF549E753E0BE016D5F7F4FCE01EA
:103AC00001960E94EF096C0149E753E0BE016D5F6A
:103AD0007F4FCE0101960E94EF09E1E0CE16D1049E
:103AE00049F4892B21F5880C991CAA1CBB1C6894ED
:103AF00080F808C0CD28D9F40197C9F4880C991C26
:103B0000AA1CBB1C0F5F1F4FCDCF10930D04009359
:103B10000C048092080490920904A0920A04B092C6
:103B20000B043092050420920404F11082C01C8220
:103B30001B823A82298280911004909111041816F8
:103B400019060CF057C0E0910E04F0910F0422E02A
:103B500030E03A8329838281938189974E9708F0D8
:103B600049C083E090E09A838983848195810B9793
:103B70000A9708F03FC04CEB51E0BE016D5F7F4FEC
:103B8000CE0101960E94EF09892BA1F54CEB51E083
:103B9000BE016D5F7F4FCE0101960E94EF09019734
:103BA00049F5412C512C320100E010E029813A8185
:103BB00080911004909111042817390734F54CEBCB
:103BC00051E0BE016D5F7F4FCE0101960E94EF096B
:103BD0006C010330110509F0F4C04CEB51E0BE015B
:103BE0006D5F7F4FCE0101960E94EF09C816D9067E
:103BF00009F4E7C0E0910E04F0910F0482819381F3
:103C0000C697869708F413C1B3C110930D040093AF
:103C10000C04409208045092090460920A047092C5
:103C20000B0482E090E09093050480930404FF204D
:103C300009F3609108047091090480910A0490913D
:103C40000B046F3FB0EE7B07B5EF8B07B5E09B072A
:103C500038F44AE00E94AE098FE791E00E949C0987
:103C600082E080934D02109251020E94F610CFCA5A
:103C70008091580290915902825491098E9708F0D0
:103C8000E5CD80E090E040E050E0BA01FC01E65A6A
:103C9000FD4F208131812950310929303105C8F08B
:103CA000D5CD80915A0290915B020997099708F04F
:103CB000C8CD10920D0410920C048FEF9FEFDC0121
:103CC0008093080490930904A0930A04B0930B0412
:103CD00021C0FC01E45AFD4F208131812751310977
:103CE00022313105D0F4440F551F661F771F416004
:103CF00004968038910551F680E290E090930D048F
:103D000080930C04409308045093090460930A04C0
:103D100070930B0483E090E026C12081318126500E
:103D200031092730310508F091CD440F551F661F2A
:103D3000771FDECF20813181235131092F303105AA
:103D400048F4880C991CAA1CBB1C689480F8029645
:103D50003496A6CD208131812A5031092930310590
:103D600008F0CBCD880C991CAA1CBB1CF0CF80910D
:103D7000580290915902C697869708F00FCEECE54D
:103D8000F2E083E090E0812C912C5401E7CD20817A
:103D900031812C5031092A30310508F0FFCD880CD3
:103DA000991CAA1CBB1CD8CD2D913C912C503109DB
:103DB0002B30310508F044CE440F551F661F771F86
:103DC0001BCE4CEB51E0BE016D5F7F4FCE010196E3
:103DD0000E94EF095C010330110569F44CEB51E0DE
:103DE000BE016D5F7F4FCE0101960E94EF09A816BC
:103DF000B90609F0FFCEC114D10459F4AA94AB2836
:103E000009F0F8CE440C551C661C771C689440F8E9
:103E10000BC0CA94CD2809F0EDCEAB2809F0EACE4C
:103E2000440C551C661C771C0F5F1F4FBFCE84814E
:103E300095814B97459708F09BC0DF0116967F014F
:103E400036ECE30EF11C20E030E040E050E060E0B2
:103E500070E080E090E0CD90DC90119719E0C11AFD
:103E6000D10818E0C116D10408F082C01296CD9096
:103E7000DC90139711E1C11AD1081DE0C116D104DD
:103E800020F501E00E94132721601496AE15BF05AE
:103E900011F7209308043093090440930A045093C7
:103EA0000B0400E20E942E2720930604309307049F
:103EB00085E090E0909305048093040480E390E013
:103EC00090930D0480930C04B4CE1296CD90DC90A8
:103ED000139714E0C11AD10815E0C116D10408F0F7
:103EE00047C001E00E941327D0CFA80142505109DA
:103EF000DA014D915C91495051094830510508F063
:103F0000E5C0BC016F5F7F4FD8014D915C91475078
:103F100051094730510508F0DBC2220F331F2160E1
:103F200002960C5F1F4F4091510250E044505109DE
:103F300084179507D4F201979595879590930D0472
:103F400080930C048A970CF4C1C0C901330FAA0BEB
:103F5000BB0B8093080490930904A0930A04B093C8
:103F60000B0489E090E0909305048093040461CEF3
:103F700080915102893370F182819381895791092F
:103F80008335910508F444C125C0D90112966D917D
:103F90007C911397665171096131710508F064C114
:103FA000D701C601880F991FAA1FBB1F6C017D0195
:103FB0006894C0F84E5F5F4F2C5F3F4F4B33510505
:103FC00009F435C1D9016D917C916A50710969304C
:103FD0007105D8F280915102823231F4828193814D
:103FE0000A97099708F450C18281938189579109F2
:103FF00083359105D0F4809151028132B0F08481F3
:104000009581CA97899788F49F012A5F3F4FC12CF9
:10401000D12C760143E050E0D9016D917C916A503A
:1040200071096930710508F44EC1828193818C5405
:104030009109C59778F480915102843031F48481DC
:1040400095818097479708F49EC1809151028434EE
:1040500008F080C180915102863460F182819381A1
:104060000C970B9708F4DDC125C0D90112966D910C
:104070007C9113976E5171096731710508F009C27F
:10408000D701C601880F991FAA1FBB1F6C017D01B4
:104090006894C0F84E5F5F4F2C5F3F4F4534510529
:1040A00009F4DAC1D9016D917C916C5071096B30C2
:1040B0007105D8F280915102883540F08281938158
:1040C000855891098B35910508F4F3C1809151020F
:1040D0008032E1F48281938106970697B8F4848157
:1040E00095810997099790F49F012A5F3F4FBF017F
:1040F000625C7F4FC12CD12C7601D9014D915C912E
:10410000465051094630510508F4EFC12091100482
:10411000309111043A872987263031050CF4A0CD5F
:104120008F010A5F1F4F83E090E098878F83B5EC83
:10413000CB2EBDE9DB2EBCE1EB2EB1E8FB2ED80186
:104140006D917C91F8013497A080B18080E090E07F
:104150000E941F242B013C01B50180E090E00E94E9
:104160001F244B015C012DEC3CEC4CE45FE30E940E
:1041700080249B01AC01C301B2010E941A2487FD77
:1041800017C02DEC3CEC4CE45FE3C301B2010E948C
:1041900080249B01AC01C501B4010E941A24E82FC0
:1041A000880FFF0BEE27FF0FEE1FFF27319602C08F
:1041B000E0E0F0E0A701960163E971E080E091E0C2
:1041C0000E94F7266F01FF0FEE08FF08C626D726CC
:1041D000E826F926EF81F8853196F887EF830E5FA0
:1041E0001F4F29853A85E217F30709F0A8CFC0923F
:1041F0000804D0920904E0920A04F0920B0480E2D1
:1042000090E090930D0480930C048FEF9FEFABCE62
:1042100084819581CA97899708F0DCCE9F012A5F37
:104220003F4FC12CD12C760143E050E0CBCE9F0113
:104230002A583F4FD9012D913C912A5031092930FC
:10424000310508F0C7CE2CE130E030930D04209307
:104250000C04C0920804D0920904E0920A04F0927F
:104260000B048AE090E07FCED90112966D917C918B
:104270001397665071096730710508F0ABCECC0C0E
:10428000DD1CEE1CFF1C96CE20915102CF01820F47
:10429000911D820F911DDC0112978D919C910A97BF
:1042A000099708F0A1CE10920D0410920C048FEF24
:1042B0009FEFDC018093080490930904A0930A0403
:1042C000B0930B044DC1D90112966D917C91139757
:1042D000665171096131710568F5D701C601880F12
:1042E000991FAA1FBB1F6C017D016894C0F84E5F27
:1042F0005F4F2C5F3F4F4332510509F08DCE9F0138
:104300002A5B3F4FD9012D913C912A503109293028
:10431000310508F08ACE20E130E030930D0420937F
:104320000C04C0920804D0920904E0920A04F092AE
:104330000B0416C1D90112966D917C9113976650AA
:1043400071096730710508F070CECC0CDD1CEE1CD5
:10435000FF1CCDCF8481958189549109C39708F0C2
:1043600079CE9F012A5F3F4FBF016A577F4FC12C13
:10437000D12C7601D9014D915C91495051094930B8
:104380005105B8F067CE868197810997099708F0A3
:104390005CCE10920D0410920C048FEF9FEFDC01A5
:1043A0008093080490930904A0930A04B0930B042B
:1043B000DAC0D90112964D915C911397465151097B
:1043C00041315105F0F4D701C601880F991FAA1F8A
:1043D000BB1F6C017D016894C0F82C5F3F4F26170E
:1043E000370741F620E230E030930D0420930C04AF
:1043F000C0920804D0920904E0920A04F0920B04DF
:10440000B2C0D90112964D915C9113974650510953
:104410004730510508F01ECECC0CDD1CEE1CFF1CF5
:10442000DCCF848195810997099708F043CE868176
:1044300097818C974F9708F03DCE8085918589971D
:104440004D9708F037CE9F01265F3F4FC12CD12CEE
:10445000760145E050E026CE9F0126573F4FD90117
:104460002D913C912C5031092B30310508F022CE92
:1044700020E230E030930D0420930C04C092080435
:10448000D0920904E0920A04F0920B0488E090E0D4
:104490006ACDD90112966D917C911397695071097B
:1044A0006930710508F006CECC0CDD1CEE1CFF1C3B
:1044B000F1CD84819581825491098E9708F006CEC2
:1044C0008F01045C1F4F8DE190E020E030E02BCDA8
:1044D000D8014D915C91485151094231510510F07C
:1044E000CB0129CD220F331F1BCDD90112964D913F
:1044F0005C911397495151094331510508F5D70192
:10450000C601880F991FAA1FBB1F6C017D0168940B
:10451000C0F82C5F3F4F2617370709F0EECD2EE08D
:1045200030E030930D0420930C04C0920804D09224
:104530000904E0920A04F0920B048FE090E013CD9E
:10454000D90112964D915C91139749505109493008
:10455000510508F0DBCDCC0CDD1CEE1CFF1CD9CFC7
:1045600086E090E000CD87E090E0FDCC109217044B
:104570001092160448EE53E060E070E04093180497
:104580005093190460931A0470931B0485E191E021
:10459000909315048093140485EC90E0909321048B
:1045A0008093200484EC90E0909323048093220471
:1045B00080EC90E0909325048093240481EC90E0BB
:1045C000909327048093260482EC90E09093290432
:1045D0008093280486EC90E090932B0480932A0427
:1045E00010922D0410922E0410922F041092300479
:1045F00081EB94E01092F2041092F1049093F50490
:104600008093F40420E430E03093F7042093F60420
:104610001092F8041092F9041092FB041092FA041C
:104620001092FC041092FE041092FD0410920005FA
:104630001092FF04109202051092010510920405D9
:1046400010920305109206051092050510920805B8
:104650001092070510920A05109209051092100594
:1046600010920F0510921205109211051092140568
:10467000109213051092160510921505109224053C
:10468000109223051092F304109231051092330515
:10469000109232051092760524E03CE03093180524
:1046A000209317052AEF3BE030931A052093190554
:1046B0002CED3BE030931C0520931B0522ED3BE0E5
:1046C00030931E0520931D0520EF3BE0309320051D
:1046D00020931F0526EE3BE0309322052093210511
:1046E00029EC3BE030932605209325052EEB3BE09B
:1046F00030932805209327052FE93EE030932A05C3
:104700002093290590930C0580930B0528E13CE04C
:1047100030932C0520932B0590930E0580930D0567
:1047200086EB9BE090932E0580932D0510927A05E1
:104730001092790540937B0550937C0560937D052D
:1047400070937E0587E291E09093780580937705DA
:104750001092CF051092CE0589E391E09093CD059C
:104760008093CC0580E28093D00580E18093D505CD
:1047700082E08093D6051092D7058091A705A8EA1C
:10478000B5E09FEF48EB5BE08C3078F48C93282FFA
:1047900030E0F901EE0FFF1F2E0F3F1FF901ED571B
:1047A000FA4F528341838F5F01C09C93139625E09B
:1047B000AC3CB20749F78093A70508951F93FC010D
:1047C00099278827BC01E89411911032E9F3193038
:1047D00010F01E30C8F31B3251F01D3249F46894BA
:1047E00006C00E940524610F711D811D911D11914C
:1047F00010531A30B0F33EF4909580957095619502
:104800007F4F8F4F9F4F1F910895592F482F372F5C
:10481000262F660F771F881F991F660F771F881F27
:10482000991F620F731F841F951F660F771F881FC4
:10483000991F08950E945C2408F481E00895E8948B
:1048400009C097FB3EF490958095709561957F4FD8
:104850008F4F9F4F9923A9F0F92F96E9BB27939586
:10486000F695879577956795B795F111F8CFFAF496
:10487000BB0F11F460FF1BC06F5F7F4F8F4F9F4FC7
:1048800016C0882311F096E911C0772321F09EE825
:10489000872F762F05C0662371F096E8862F70E08B
:1048A00060E02AF09A95660F771F881FDAF7880F65
:1048B0009695879597F90895990F0008550FAA0BBB
:1048C000E0E8FEEF16161706E807F907C0F0121623
:1048D0001306E407F50798F0621B730B840B950B26
:1048E00039F40A2661F0232B242B252B21F408957B
:1048F0000A2609F4A140A6958FEF811D811D089518
:104900000E9493240C9404250E94F62438F00E94FF
:10491000FD2420F0952311F00C94ED240C94F32445
:1049200011240C9438250E94152570F3959FC1F32E
:10493000950F50E0551F629FF001729FBB27F00D4D
:10494000B11D639FAA27F00DB11DAA1F649F6627A2
:10495000B00DA11D661F829F2227B00DA11D621FF1
:10496000739FB00DA11D621F839FA00D611D221FAB
:10497000749F3327A00D611D231F849F600D211D8F
:10498000822F762F6A2F11249F5750409AF0F1F012
:1049900088234AF0EE0FFF1FBB1F661F771F881F7B
:1049A00091505040A9F79E3F510580F00C94ED24A2
:1049B0000C9438255F3FE4F3983ED4F386957795C1
:1049C0006795B795F795E7959F5FC1F7FE2B880F21
:1049D000911D9695879597F9089597F99F6780E8B7
:1049E00070E060E008959FEF80EC089500240A9441
:1049F0001616170618060906089500240A941216BA
:104A00001306140605060895092E0394000C11F4EC
:104A1000882352F0BB0F40F4BF2B11F460FF04C099
:104A20006F5F7F4F8F4F9F4F089557FD9058440FF2
:104A3000551F59F05F3F71F04795880F97FB991FFD
:104A400061F09F3F79F087950895121613061406BA
:104A5000551FF2CF4695F1DF08C016161706180647
:104A6000991FF1CF86957105610508940895E89422
:104A7000BB2766277727CB0197F90895052E97FB6B
:104A80001EF400940E94552557FD07D00E94A725CB
:104A900007FC03D04EF40C94552550954095309565
:104AA00021953F4F4F4F5F4F08959095809570959A
:104AB00061957F4F8F4F9F4F08950E94C925A59FF5
:104AC000900DB49F900DA49F800D911D1124089509
:104AD000B7FF0C945D250E945D25821B930B089502
:104AE0002F923F924F925F926F927F928F929F92FE
:104AF000AF92BF92CF92DF92EF92FF920F931F93EC
:104B0000CF93DF93CDB7DEB7CA1BDB0B0FB6F8949C
:104B1000DEBF0FBECDBF09942A88398848885F84DC
:104B20006E847D848C849B84AA84B984C884DF804D
:104B3000EE80FD800C811B81AA81B981CE0FD11D31
:104B40000FB6F894DEBF0FBECDBFED010895A1E210
:104B50001A2EAA1BBB1BFD010DC0AA1FBB1FEE1FF7
:104B6000FF1FA217B307E407F50720F0A21BB30B42
:104B7000E40BF50B661F771F881F991F1A9469F7BE
:104B800060957095809590959B01AC01BD01CF011A
:104B90000895A29FB001B39FC001A39F700D811D16
:104BA0001124911DB29F700D811D1124911D089536
:104BB0005058BB27AA270E94F0250C9404250E9478
:104BC000F62438F00E94FD2420F039F49F3F19F4B8
:104BD00026F40C94F3240EF4E095E7FB0C94ED24FA
:104BE000E92F0E94152558F3BA1762077307840747
:104BF000950720F079F4A6F50C9437250EF4E0958E
:104C00000B2EBA2FA02D0B01B90190010C01CA0186
:104C1000A0011124FF27591B99F0593F50F4503E31
:104C200068F11A16F040A22F232F342F4427585F23
:104C3000F3CF469537952795A795F0405395C9F73B
:104C40007EF41F16BA0B620B730B840BBAF09150F3
:104C5000A1F0FF0FBB1F661F771F881FC2F70EC092
:104C6000BA0F621F731F841F48F487957795679565
:104C7000B795F7959E3F08F0B0CF9395880F08F051
:104C80009927EE0F9795879508950E9459260C94C1
:104C900004250E94FD2458F00E94F62440F029F4D7
:104CA0005F3F29F00C94ED2451110C9438250C949D
:104CB000F3240E94152568F39923B1F3552391F34A
:104CC000951B550BBB27AA2762177307840738F07B
:104CD0009F5F5F4F220F331F441FAA1FA9F335D0D8
:104CE0000E2E3AF0E0E832D091505040E695001C8C
:104CF000CAF72BD0FE2F29D0660F771F881FBB1F46
:104D0000261737074807AB07B0E809F0BB0B802D23
:104D1000BF01FF2793585F4F3AF09E3F510578F04F
:104D20000C94ED240C9438255F3FE4F3983ED4F3C3
:104D3000869577956795B795F7959F5FC9F7880F23
:104D4000911D9695879597F90895E1E0660F771F75
:104D5000881FBB1F621773078407BA0720F0621B06
:104D6000730B840BBA0BEE1F88F7E09508950E9431
:104D7000BE266894B1110C94382508950E941D2513
:104D800088F09F5798F0B92F9927B751B0F0E1F00C
:104D9000660F771F881F991F1AF0BA95C9F714C0BC
:104DA000B13091F00E943725B1E008950C94372579
:104DB000672F782F8827B85F39F0B93FCCF38695F5
:104DC00077956795B395D9F73EF490958095709552
:104DD00061957F4F8F4F9F4F08950E945C2408F488
:104DE0008FEF08950E945C24880B990B0895DB01D6
:104DF0008F939F930E945D25BF91AF91A29F800DDD
:104E0000911DA39F900DB29F900D11240895991BA1
:104E100079E004C0991F961708F0961B881F7A95B1
:104E2000C9F7809508950F93083090F0982F872F39
:104E3000762F652F542F432F322F22270850F4CF7F
:104E4000220F331F441F551F661F771F881F991F8E
:104E50000A95B2F70F91089597FB10F81694000881
:104E60000F93083098F00850232F342F452F562FDA
:104E7000672F782F892F902DF4CF059497958795DC
:104E80007795679557954795379527950A95AAF78A
:104E90000F910895EE0FFF1F0590F491E02D0994F6
:104EA000CF93DF938230910510F482E090E0E0919F
:104EB0004C06F0914D0620E030E0C0E0D0E03097A5
:104EC00011F14081518148175907C0F0481759071F
:104ED00061F482819381209719F09B838A832BC090
:104EE00090934D0680934C0626C02115310519F08C
:104EF0004217530718F49A01BE01DF01EF01028047
:104F0000F381E02DDCCF2115310509F1281B390B88
:104F10002430310590F412968D919C911397611570
:104F2000710521F0FB019383828304C090934D06A9
:104F300080934C06FD01329644C0FD01E20FF31F41
:104F400081939193225031092D933C933AC0209143
:104F50004A0630914B06232B41F4209105013091F4
:104F6000060130934B0620934A06209103013091AD
:104F700004012115310541F42DB73EB740910701D9
:104F800050910801241B350BE0914A06F0914B0625
:104F9000E217F307A0F42E1B3F0B2817390778F010
:104FA000AC014E5F5F4F2417350748F04E0F5F1F6F
:104FB00050934B0640934A068193919302C0E0E0E0
:104FC000F0E0CF01DF91CF9108950F931F93CF931E
:104FD000DF93009709F48CC0FC0132971382128290
:104FE00000914C0610914D060115110581F42081A8
:104FF0003181820F931F20914A0630914B0628176A
:10500000390779F5F0934B06E0934A0671C0D80151
:1050100040E050E0AE17BF0750F412962D913C913E
:105020001397AD012115310509F1D901F3CF9D0188
:10503000DA013383228360817181860F971F821783
:10504000930769F4EC0128813981260F371F2E5F01
:105050003F4F318320838A819B8193838283452BB9
:1050600029F4F0934D06E0934C0642C01396FC934E
:10507000EE931297ED01499159919E01240F351F2E
:10508000E217F30771F480819181840F951F0296D6
:1050900011969C938E938281938113969C938E9309
:1050A0001297E0E0F0E0D80112968D919C91139751
:1050B000009719F0F8018C01F6CF8D919C91980121
:1050C0002E5F3F4F820F931F20914A0630914B066F
:1050D0002817390769F4309729F410924D06109279
:1050E0004C0602C01382128210934B0600934A06AC
:1050F000DF91CF911F910F910895A0E0B0E0E3E818
:10510000F8E20C947425EC01009721F4CB010E9485
:105110005027B8C0FC01E60FF71F9C01225031094F
:10512000E217F30708F4ACC0D9010D911C91119757
:1051300006171707B0F00530110508F49FC0C80125
:1051400004978617970708F499C002501109061BA7
:10515000170B019311936D937C93CF010E94E52768
:105160008DC05B01A01AB10A4C01800E911EA09166
:105170004C06B0914D0640E050E0E12CF12C109728
:1051800009F44AC0A815B905D1F56D907C90119726
:10519000630182E0C80ED11CCA14DB0480F1A301B4
:1051A0004A195B096A0182E0C80ED11C1296BC90B4
:1051B00012971396AC91B5E0CB16D10440F0B282B1
:1051C000A38351834083D9016D937C930AC00E5F02
:1051D0001F4FC301800F911FF90191838083EB2D35
:1051E000FA2FE114F10431F0D7011396FC93EE93FA
:1051F000129744C0F0934D06E0934C063FC08D914A
:105200009C9111974817590708F4AC017D0112963B
:105210000D90BC91A02DB3CF80914A0690914B0682
:1052200088159905E1F446175707C8F480910301E2
:1052300090910401009741F48DB79EB7409107010A
:1052400050910801841B950BE817F907C8F4F093F7
:105250004B06E0934A06F901718360830FC0CB01CE
:105260000E9450277C01009759F0A801BE010E94BE
:105270004C29CE010E94E527C70104C0CE0102C01F
:1052800080E090E0CDB7DEB7EEE00C94902581E0B1
:1052900090E0F8940C947929FB01DC0102C00190A4
:1052A0000D9241505040D8F70895FB01DC01019068
:1052B0000D920020E1F70895FB01DC0141505040C0
:1052C00030F08D910190801919F40020B9F7881BF6
:1052D000990B0895FB01DC014150504048F00190CA
:1052E0000D920020C9F701C01D9241505040E0F7D7
:0652F0000895F894FFCFC1
:1052F600FF130000004E068000000040001400541A
:1053060000000000008D10FA0F2510D4105610343E
:10531600104810000000000D14DD13DA13AD13D190
:1053260013BD13AE1300000000590CFA0FDA13D99F
:10533600132F55736572732F616C65782F576F72D3
:105346006B73706163652F68617264776172652F34
:105356007570646174655F746F6F6C2F7372632F01
:10536600636D5F6669726D6174612E696E6F000DA3
:105376000A00556E6B6E6F776E2070696E206D6FCA
:105386006465004932432052656164204572726F3C
:10539600723A20546F6F206D616E79206279746560
:1053A60073207265636569766564004932432052ED
:1053B600656164204572726F723A20546F6F206681
:1053C60065772062797465732072656365697665B1
:1053D600640031302D626974206164647265737390
:1053E600696E67206E6F7420737570706F72746566
:1053F6006400746F6F206D616E79207175657269D6
:1054060065730043332D0043342D3000433400438D
:10541600342D54455854006E616E00696E66006FF7
:0454260076660000A6
:00000001FF
