:100000000C949F000C94C7000C94C7000C94C7007C
:100010000C94C7000C94C7000C94C7000C9475197D
:100020000C94C7000C94C7000C94C7000C94EA28E9
:100030000C94C7000C94C7000C94C7000C94C70024
:100040000C94DE2A0C94C7000C94472E0C94792E45
:100050000C94C7000C94C7000C94C7000C94C70004
:100060000C94C7000C94C700084AD73B3BCE016EE6
:1000700084BCBFFDC12F3D6C74319ABD56833DDAFF
:100080003D00C77F11BED9E4BB4C3E916BAAAABE0E
:10009000000000803F000000000800020100000393
:1000A0000407000000000000000001020408102006
:1000B00040800102040810200102040810200404FA
:1000C0000404040404040202020202020303030300
:1000D00003030000000023002600290000000000A8
:1000E000250028002B0000000000240027002A0023
:1000F0006364696E6F70737578585B004E414E494A
:100100004E495459494E46CDCCCC3D0AD7233C17D5
:10011000B7D13877CC2B329595E6241FB14F0A0022
:100120000020410000C84200401C4620BCBE4CCA12
:100130001B0E5AAEC59D7400EB0DA92E950E112411
:100140001FBECFEFD8E0DEBFCDBF11E0A0E0B1E031
:10015000E4E3F8E702C005900D92A03AB107D9F7A1
:1001600024E0A0EAB1E001C01D92A63CB207E1F78D
:1001700011E0CCE3D1E004C02297FE010E948F354C
:10018000C833D107C9F70E94ED2E0C940D3C0C9496
:10019000000063E271E08DE194E00C94452F61E092
:1001A00089E293E00E94B31460E070E089E293E09A
:1001B0000E94F91462E089E293E00E94B31460E0C7
:1001C00070E089E293E00C94F914CF92DF92EF9201
:1001D000FF920F931F93CF93DF93C2E3D0E000E031
:1001E00010E084E10E94C52B080F191F2197C9F761
:1001F000B80180E090E00E94F53223ED36EF4FEA3F
:100200005BE30E942A3420E030E048E452E40E949C
:100210005C326B017C0120E030E040E450E40E945D
:10022000583287FF06C0C12CD12C90E4E92EFE2C59
:1002300011C023E333E343E850E4C701B6010E9451
:100240001F3418163CF483E3C82EDC2C83E8E82E18
:1002500080E4F82E20E030E040E450E4C701B6012D
:100260000E9491312AE939E949E95FE30E945C3251
:1002700020E030E048EC52E40E942A340E948D34A1
:100280000E94C4324AE050E08DE194E0DF91CF91CA
:100290001F910F91FF90EF90DF90CF900C94FA2F69
:1002A00081E0809380008BE0809381000895CF935C
:1002B000DF93E2E2F2E0C0E0D0E04191242F30E0B1
:1002C00028173907C9F0411110C0FE01EE5DFD4F3E
:1002D00080839E01220F331F2C0F3D1FBC01C901DB
:1002E0008A5D9D4F0E94402A07C02196C430D105E7
:1002F00021F780E090E001C0CE01DF91CF91089519
:10030000EF92FF920F931F93CF93DF93EB01FC01CA
:100310006081613401F5FF92EF921F930F933F9339
:100320002F935F934F93DF93CF932FE331E03F936E
:100330002F939F938F930E942037888199810E96E7
:10034000998388838DB79EB70E960FB6F8949EBF9B
:100350000FBE8DBF1AC0FF92EF921F930F933F9372
:100360002F935F934F93DF93CF9320E431E03F933C
:100370002F939F938F930E9420378DB79EB70E9631
:100380000FB6F8949EBF0FBE8DBFDF91CF911F9126
:100390000F91FF90EF900895DC01ED91FC91119782
:1003A0009F012F5F3F4F2D933C9320812032A1F777
:1003B0000895EF92FF920F931F93CF93DF93CDB7E2
:1003C000DEB72C970FB6F894DEBF0FBECDBF9C876B
:1003D0008B87CE010B960E94CC01CE0101967C0149
:1003E0008E010D5F1F4F9E012B5F3F4FAE01495F96
:1003F0005F4FBE01675F7F4F8B859C850E948001A8
:10040000698589EF92E00E949D2509812B814D81AC
:100410006F8189EF92E00E94E12589EF92E00E94CE
:1004200033262C960FB6F894DEBF0FBECDBFDF91FA
:10043000CF911F910F91FF90EF900895EF92FF924F
:100440000F931F93CF93DF93CDB7DEB72C970FB6E3
:10045000F894DEBF0FBECDBF9C878B87CE010B9675
:100460000E94CC01CE0101967C018E010D5F1F4FD1
:100470009E012B5F3F4FAE01495F5F4FBE01675F3B
:100480007F4F8B859C850E948001698586EE92E076
:100490000E94732609812B814D816F8186EE92E047
:1004A0000E94752686EE92E00E94A8262C960FB632
:1004B000F894DEBF0FBECDBFDF91CF911F910F919A
:1004C000FF90EF900895CF93DF93EC010E94CC0151
:1004D00088819981DF91CF910C94CD36CF93DF93B2
:1004E00000D0CDB7DEB79A838983CE0101960E94F2
:1004F0006302682F89E293E00E94B314CE01019653
:100500000E946302BC0189E293E00E94F9140F90FB
:100510000F90DF91CF9108950F931F93CF93DF93A7
:1005200000D0CDB7DEB79A838983CE0101960E94B1
:1005300063028C01CE0101960E9463020331110512
:1005400061F00231110561F00031110561F00F30E9
:100550001105B9F423E030E008C020E030E005C028
:1005600021E030E002C022E030E066E0629FA001BE
:10057000639F500D1124BC01CA018F5E9C4F0E94E5
:1005800045100F900F90DF91CF911F910F9108951B
:10059000EF92FF920F931F93CF93DF9300D0CDB7CD
:1005A000DEB79A838983CE0101960E9463027C01A3
:1005B000CE0101960E9463028C01C7010E9457017F
:1005C000053B110558F49C01220F331F280F391FDA
:1005D000B801C9018A5D9D4F0E94792A0F900F9042
:1005E000DF91CF911F910F91FF90EF900895CF93DE
:1005F000DF9300D0CDB7DEB79A83898362E089E2CA
:1006000093E00E94B314CE0101960E946302BC01E4
:1006100089E293E00E94F91461E089E293E00E948C
:10062000B314CE0101960E946302BC0189E293E0FB
:100630000E94F9140F900F90DF91CF9108951F93AE
:10064000CF93DF9300D0CDB7DEB79A838983CE01F5
:1006500001960E946302182F60E00E946A2C812F8D
:100660000E94C52B4AE050E0BC018DE194E00E945D
:10067000FA2F0F900F90DF91CF911F9108951F9344
:10068000CF93DF9300D0CDB7DEB79A838983CE01B5
:1006900001960E946302182F60E00E946A2C812F4D
:1006A0000E94C52B4AE050E0BC018DE194E00E941D
:1006B000FA2F0F900F90DF91CF911F910895CF9354
:1006C000DF9300D0CDB7DEB79A838983CE01019640
:1006D0000E946302682F82E093E00E94F62682E087
:1006E00093E00E94F826AB01BC0122E030E08DE1EE
:1006F00094E00E9437310F900F90DF91CF910895D1
:100700000F931F93CF93DF9300D0CDB7DEB79A83BB
:100710008983CE0101960E9463028C01CE0101966D
:100720000E9463029C01442737FD4095542FB80175
:1007300080EE92E00E9468130F900F90DF91CF91AE
:100740001F910F910895CF93DF9300D0CDB7DEB7FF
:100750009A838983CE0101960E946302682F85E502
:1007600093E00E94132885E593E00E941528AB01D1
:10077000BC0122E030E08DE194E00E9437310F901F
:100780000F90DF91CF910895CF93DF9300D0CDB735
:10079000DEB79A838983CE0101960E946302682F97
:1007A00082E693E00E94D02682E693E00E94D5265E
:1007B0004AE050E0BC018DE194E00E9436300F9099
:1007C0000F90DF91CF9108950F931F93CF93DF93F5
:1007D00000D000D01F92CDB7DEB79A838983CE01B7
:1007E00001960E946302682FCE0101966D830E94DC
:1007F0006302182FCE0101960E946302482FCE019A
:1008000001964C830E946302282FCE0101962B8310
:100810000E946302082F6D8183E693E00E94361BDD
:100820002B814C81612F83E693E00E94811B0F9006
:100830000F900F900F900F90DF91CF911F910F911C
:1008400008950F931F93CF93DF9300D000D01F9292
:10085000CDB7DEB79A838983CE0101960E946302E9
:10086000682FCE0101966D830E946302182FCE017E
:1008700001960E946302482FCE0101964C830E948C
:100880006302282FCE0101962B830E946302082F5A
:100890006D8185E593E00E9413282B814C81612FA7
:1008A00085E593E00E9490280F900F900F900F9095
:1008B0000F90DF91CF911F910F910895FF920F93A9
:1008C0001F93CF93DF9300D01F92CDB7DEB79A83EB
:1008D0008983CE0101960E946302682FCE010196A2
:1008E0006B830E946302F82ECE0101960E94630280
:1008F0008C016B8183E693E00E94361B41E0012B63
:1009000009F440E06F2D83E693E00E94C71B0F902F
:100910000F900F90DF91CF911F910F91FF9008954D
:10092000FF920F931F93CF93DF9300D01F92CDB709
:10093000DEB79A838983CE0101960E946302682FF5
:10094000CE0101966B830E946302F82ECE010196C0
:100950000E9463028C016B8185E593E00E9413285D
:1009600041E0012B09F440E06F2D85E593E00E9402
:10097000A4280F900F900F90DF91CF911F910F91AE
:10098000FF9008951F93CF93DF9300D01F92CDB7B0
:10099000DEB79A838983CE0101960E946302682F95
:1009A000CE0101966B830E946302182F6B818FE446
:1009B00093E00E942E22612F8FE493E00E94872211
:1009C0004AE050E0BC018DE194E00E9436300F9087
:1009D0000F900F90DF91CF911F910895FF920F9389
:1009E0001F93CF93DF9300D000D0CDB7DEB79A83AB
:1009F0008983CE0101960E946302682FCE01019681
:100A00006C830E946302F82ECE0101960E9463025D
:100A1000482FCE0101964B830E9463028C016C81AA
:100A200084E393E00E94CA1C21E04B81012B09F46E
:100A300020E06F2D84E393E00E947B1E0F900F90C7
:100A40000F900F90DF91CF911F910F91FF9008951C
:100A50001F93CF93DF9300D000D0CDB7DEB79A833A
:100A60008983CE0101960E946302682FCE01019610
:100A70006C830E946302182FCE0101960E946302CC
:100A8000482FCE0101964B830E94CC016C8184E3F8
:100A900093E00E94CA1C29813A814B81612F84E333
:100AA00093E00E94211E0F900F900F900F90DF9106
:100AB000CF911F9108959F92AF92BF92CF92DF92F4
:100AC000EF92FF920F931F93CF93DF93CDB7DEB7D3
:100AD00060970FB6F894DEBF0FBECDBF988B8F879F
:100AE0008E01015F1F4FC8010E946302982EC8014A
:100AF0000E946302D82EC8010E946302C82ECE0154
:100B000001967C015C01C8010E946302F701819398
:100B10007F01E017F107B9F7692D84E393E00E94A4
:100B2000CA1C95014C2D6D2D84E393E00E94EC1CB2
:100B300060960FB6F894DEBF0FBECDBFDF91CF91A8
:100B40001F910F91FF90EF90DF90CF90BF90AF90EB
:100B50009F9008951F93CF93DF9300D01F92CDB73E
:100B6000DEB79A838983CE0101960E946302682FC3
:100B7000CE0101966B830E946302182FCE0101966D
:100B80000E946302482F6B8184E393E04B830E94B1
:100B9000CA1C4B81612F84E393E00E94A11D0F903A
:100BA0000F900F90DF91CF911F9108951F93CF93D6
:100BB000DF9300D01F92CDB7DEB79A838983CE0131
:100BC00001960E946302682FCE0101966B830E94FA
:100BD0006302182FCE0101960E946302482F6B8199
:100BE00084E393E04B830E94CA1C4B81612F84E312
:100BF00093E00E94C81D0F900F900F90DF91CF914E
:100C00001F910895CF93DF9300D0CDB7DEB79A83BD
:100C10008983CE0101960E946302682F84E393E0EA
:100C20000E94CA1C84E393E00E94CC1C0F900F909A
:100C3000DF91CF9108951F93CF93DF9300D0CDB76D
:100C4000DEB79A838983CE0101960E946302182F32
:100C5000CE0101960E946302682F812F0E94A32C6F
:100C60000F900F90DF91CF911F9108950F931F93D5
:100C7000CF93DF9300D01F92CDB7DEB79A838983DD
:100C8000CE0101960E946302682FCE0101966B830C
:100C90000E9463028C016B818FEC92E00E944419E8
:100CA0008FEC92E00E94461960E08FEC92E0012BFD
:100CB00019F40E946A1902C00E945F194AE050E0CC
:100CC000BC018DE194E00E9436300F900F900F90A0
:100CD000DF91CF911F910F910895CF93DF9300D0B3
:100CE000CDB7DEB79A838983CE0101960E94630255
:100CF0000E94C52B4AE050E0BC018DE194E00E94C7
:100D0000FA2F0F900F90DF91CF9108950F931F93BB
:100D1000CF93DF9300D0CDB7DEB79A838983CE011E
:100D200001960E946302182FCE0101960E94630271
:100D3000082F61E0812F0E946A2C602F812F0E9472
:100D4000A32C0F900F90DF91CF911F910F910895D9
:100D5000CF93DF9300D0CDB7DEB79A838983CE01DE
:100D600001960E946302682F81EE92E00E94E224C5
:100D700081EE92E00E94E4244AE050E0682F8DE189
:100D800094E00E941F300F900F90DF91CF91089553
:100D9000FF920F931F93CF93DF9300D01F92CDB795
:100DA000DEB79A838983CE0101960E946302682F81
:100DB000CE0101966B830E946302F82ECE0101964C
:100DC0000E9463028C016B8188EB92E00E94AD105F
:100DD00041E0012B09F440E06F2D88EB92E00E9486
:100DE000AF100F900F900F90DF91CF911F910F9147
:100DF000FF900895CF93DF9300D0CDB7DEB79A83ED
:100E00008983CE0101960E946302682F87EA92E0EF
:100E10000E94811387EA92E00E94E5130F900F90E1
:100E2000DF91CF9108950F931F93CF93DF9300D05D
:100E30001F92CDB7DEB79A838983CE0101960E94B7
:100E40006302682FCE0101966B830E9463028C01BE
:100E50006B8187EA92E00E94811361E0012B09F423
:100E600060E087EA92E00E94F9130F900F900F90D4
:100E7000DF91CF911F910F9108951F93CF93DF932F
:100E800000D01F92CDB7DEB79A838983CE01019639
:100E90000E946302682FCE0101966B830E94630259
:100EA000182F6B8187EA92E00E948113612F87EAF5
:100EB00092E00E9416144AE050E0BC018DE194E0FB
:100EC0000E9436300F900F900F90DF91CF911F91BD
:100ED00008951F93CF93DF9300D01F92CDB7DEB755
:100EE0009A838983CE0101960E946302682FCE0106
:100EF00001966B830E946302182F6B8180EA92E057
:100F00000E940916612F80EA92E00E9428164AE0AA
:100F100050E0682F8DE194E00E941F300F900F90F9
:100F20000F90DF91CF911F9108951F93CF93DF937F
:100F300000D01F92CDB7DEB79A838983CE01019688
:100F40000E946302682FCE0101966B830E946302A8
:100F5000182F6B8188E992E00E94011C612F88E9BB
:100F600092E00E94201C4AE050E0682F8DE194E05E
:100F70000E941F300F900F900F90DF91CF911F9123
:100F800008951F93CF93DF9300D01F92CDB7DEB7A4
:100F90009A838983CE0101960E946302682FCE0155
:100FA00001966B830E946302182F6B8188E892E0A0
:100FB0000E945514612F88E892E00E9492144AE042
:100FC00050E0BC018DE194E00E9436300F900F900C
:100FD0000F90DF91CF911F9108951F93CF93DF93CF
:100FE00000D01F92CDB7DEB79A838983CE010196D8
:100FF0000E946302682FCE0101966B830E946302F8
:10100000182F6B8188E492E00E948616612F88E495
:1010100092E00E94EB18AB01BC0122E030E08DE1D0
:1010200094E00E9437310F900F900F90DF91CF9195
:101030001F9108950F931F93CF93DF9300D01F92BA
:10104000CDB7DEB79A838983CE0101960E946302F1
:10105000682FCE0101966B830E9463028C016B8125
:101060008FE392E00E94102561E0012B09F460E01B
:101070008FE392E00E9412250F900F900F90DF9166
:10108000CF911F910F9108950F931F93CF93DF93EB
:1010900000D01F92CDB7DEB79A838983CE01019627
:1010A0000E946302682FCE0101966B830E94630247
:1010B0008C016B818BE392E00E94C72861E0012BD9
:1010C00009F460E08BE392E00E94C9280F900F9032
:1010D0000F90DF91CF911F910F910895CF93DF93E0
:1010E00000D0CDB7DEB79A838983CE0101960E94E6
:1010F0006302682F86E392E00E94B82286E392E0C2
:101100000E9434230F900F90DF91CF910895CF93D9
:10111000DF9300D0CDB7DEB79A838983CE010196E5
:101120000E946302682F86E392E00E94B82286E361
:1011300092E00E941E230F900F90DF91CF910895AF
:10114000CF93DF9300D0CDB7DEB79A838983CE01EA
:1011500001960E946302682F86E392E00E94B82203
:1011600086E392E00E9408230F900F90DF91CF91C9
:1011700008951F93CF93DF9300D01F92CDB7DEB7B2
:101180009A838983CE0101960E946302682FCE0163
:1011900001966B830E946302182F6B8186E392E0B5
:1011A0000E94B822612F86E392E00E944A230F90AA
:1011B0000F900F90DF91CF911F9108950F931F9380
:1011C000CF93DF9300D01F92CDB7DEB79A83898388
:1011D000CE0101960E946302682FCE0101966B83B7
:1011E0000E9463028C016B8186E392E00E94B82228
:1011F000B80186E392E00E94BA220F900F900F9000
:10120000DF91CF911F910F9108951F93CF93DF939B
:1012100000D01F92CDB7DEB79A838983CE010196A5
:101220000E946302682FCE0101966B830E946302C5
:10123000182F6B8186E392E00E94B822612F86E32B
:1012400092E00E94E5220F900F900F90DF91CF91D6
:101250001F910895CF93DF9300D0CDB7DEB79A8367
:101260008983CE0101960E946302682F82E392E097
:101270000E94521C82E392E00E94541C4AE050E01B
:10128000BC018DE194E00E9436300F900F90DF9109
:10129000CF9108950F931F93CF93DF9300D01F92A8
:1012A000CDB7DEB79A838983CE0101960E9463028F
:1012B000682FCE0101966B830E9463028C016B81C3
:1012C00082E392E00E94521C61E0012B09F460E08D
:1012D00082E392E00E94801C0F900F900F90DF91AC
:1012E000CF911F910F910895CF93DF93EC010E944E
:1012F000CC0188819981DF91CF910C94C936CF922E
:10130000DF92EF92FF921F93CF93DF9300D0CDB780
:10131000DEB79A838983CE0101960E946302182F5B
:10132000CE0101960E9474096B017C01612F84E358
:1013300093E00E94CA1CB701A60184E393E00E94D7
:10134000BA1E0F900F90DF91CF911F91FF90EF90F9
:10135000DF90CF900895CF92DF92EF92FF921F938C
:10136000CF93DF9300D0CDB7DEB79A838983CE01C8
:1013700001960E946302182FCE0101960E94740903
:101380006B017C01612F8DEB92E00E940D11B70182
:10139000A6018DEB92E00E9450110F900F90DF910B
:1013A000CF911F91FF90EF90DF90CF900895882309
:1013B00019F060E571E002C065E571E08DE194E04F
:1013C0000C94452FCF93DF9300D0CDB7DEB79A832F
:1013D0008983CE0101960E946302682F85ED92E019
:1013E0000E94371ACE0101960E946302682F85ED94
:1013F00092E00E94471A0E94D7090F900F90DF9148
:10140000CF9108951F93CF93DF9300D0CDB7DEB770
:101410009A838983CE0101960E946302182F60E0AF
:101420000E946A2C812F0E94D92C21E0892B09F07F
:1014300020E0822F0E94D7090F900F90DF91CF916B
:101440001F910895CF93DF9300D0CDB7DEB79A8375
:101450008983CE0101960E946302682F83E693E0A0
:101460000E94361B83E693E00E94381B91E08111B5
:1014700001C090E0892F0E94D7090F900F90DF9153
:10148000CF9108951F93CF93DF9300D01F92CDB7D4
:10149000DEB79A838983CE0101960E946302682F8A
:1014A000CE0101966B830E946302182F6B818FE43B
:1014B00093E00E942E22612F8FE493E00E94872206
:1014C00021E08038924008F020E0822F0E94D70966
:1014D0000F900F900F90DF91CF911F910895CF93B0
:1014E000DF9300D0CDB7DEB79A838983CE01019612
:1014F0000E946302682F8AEC92E00E94C4278AEC63
:1015000092E00E94C62791E0811101C090E0892FEE
:101510000E94D7090F900F90DF91CF9108950F93FC
:101520001F93CF93DF9300D01F92CDB7DEB79A837E
:101530008983CE0101960E946302682FCE01019635
:101540006B830E9463028C016B8188EB92E00E94A6
:10155000AD1088EB92E00E94E610282F30E081E089
:101560002017310709F080E00E94D7090F900F90F3
:101570000F90DF91CF911F910F910895CF93DF933B
:1015800000D0CDB7DEB79A838983CE0101960E9441
:101590006302682F83EB92E00E94B42483EB92E015
:1015A0000E94B62491E0811101C090E0892F0E9431
:1015B000D7090F900F90DF91CF910895CF93DF93CC
:1015C00000D0CDB7DEB79A838983CE0101960E9401
:1015D0006302682F8FE992E00E9408228FE992E06F
:1015E0000E9410220E94D7090F900F90DF91CF9197
:1015F00008951F93CF93DF9300D01F92CDB7DEB72E
:101600009A838983CE0101960E946302682FCE01DE
:1016100001966B830E946302182F6B8183E492E032
:101620000E947727612F83E492E00E9491270E9415
:10163000D7090F900F900F90DF91CF911F910895D0
:10164000CF93DF9300D0CDB7DEB79A838983CE01E5
:1016500001960E946302682F86E392E00E94B822FE
:1016600086E392E00E94722391E0811101C090E034
:10167000892F0E94D7090F900F90DF91CF91089585
:10168000FF920F931F93CF93DF938C0101960E94DB
:10169000CD368032910509F45AC10CF071C0803109
:1016A000910509F433C1CCF58830910509F4E0C007
:1016B000ECF48330910509F408C164F4813091059C
:1016C00009F4FDC00CF0FEC0892B09F095C1C2E001
:1016D000DAE051C18630910509F448C10CF049C1E6
:1016E000059709F089C1C9ECD0E045C18C3091055E
:1016F00009F4BBC04CF48A30910509F479C10CF4AB
:1017000074C1CFE3D3E037C18E30910509F4F8C03E
:101710000CF0F9C0CEE1D2E06DC18831910509F439
:1017200007C1BCF48431910509F4F9C04CF482314D
:10173000910509F4EEC00CF0EFC0CAEFD6E05AC133
:101740008631910509F4EEC00CF0EFC0CEEDDAE081
:1017500012C18C31910509F400C14CF48A31910514
:1017600009F4E9C00CF0EAC0C9EFDAE004C18E3137
:10177000910509F4EFC00CF4F3C0C0EAD8E03AC117
:101780008737910509F4AAC0DCF58F36910509F475
:101790008AC0FCF48636910509F473C06CF4823279
:1017A000910509F4CEC00CF4CFC08336910509F041
:1017B00023C1CCE9DDE01EC18D36910509F467C077
:1017C0000CF06EC08C36910509F016C1C2E4DAE067
:1017D000D2C08337910509F46FC04CF4813791056D
:1017E00009F464C00CF065C0CFE7D9E003C18537C8
:1017F000910509F470C00CF46BC0C4EED3E0FAC0DC
:101800008F37910509F446C0ACF48B37910509F484
:1018100074C03CF48937910509F466C00CF067C0C8
:101820003CC08D37910509F45CC00CF463C0C8EA74
:10183000D6E0A1C0883C9105F1F064F481389105AF
:1018400009F491C054F18238910509F0D5C0CAE479
:10185000D9E0D0C08A3C9105B9F084F08C3C910568
:1018600009F0CAC0CCE8D2E0C5C0CFE5D3E083C060
:10187000CFE1D3E080C0CEE6D2E0BCC0C7EFD2E07B
:10188000B9C0CFECD0E0B6C0C8ECD2E0B3C0C1E282
:10189000D4E0B0C0C0E9D4E0ADC0CEE5D4E0AAC089
:1018A000C3EAD3E068C0C2ECD4E065C0CEEED4E0B9
:1018B000A1C0C8E2D5E09EC0CBE5D5E09BC0CAEA96
:1018C000D5E098C0C6EDD5E095C0C2E0D6E092C0A4
:1018D000C4ECD3E050C0C2E2DAE04DC0CBE1D6E0C8
:1018E00089C0C6E8D6E086C0CFE6DAE044C0C6E3E9
:1018F000D6E041C0CDE6D6E03EC0CBEAD9E07AC022
:10190000CFE8DAE038C0C8ECD6E074C0CEEBDAE05D
:1019100032C0C3E1D7E06EC0CDE3D7E02CC0C9E64A
:10192000D7E029C0C5E9D7E026C0C1ECD7E023C085
:10193000CDEED7E020C0CAE1D8E05CC0C4E4D8E076
:1019400059C0C0E2DBE017C0CEE6D8E053C0C7E81C
:10195000D8E050C0C9EBD8E04DC0CEEDD8E04AC0C9
:10196000C5E0D9E047C0CAE2D9E005C0C5EED0E085
:1019700002C0C2EED9E0F80101900020E9F7AF0102
:1019800041505109401B510BE0911D04F0911E0480
:101990000280F381E02DB8018DE194E00995FF24E8
:1019A000F394C801FE010995F11026C0F8010190D9
:1019B0000020E9F7AF0141505109401B510BE09164
:1019C0001D04F0911E040280F381E02DB8018DE129
:1019D00094E009956BE571E08DE194E0DF91CF91A2
:1019E0001F910F91FF900C94452FC9EDD1E002C0DB
:1019F000C0E8D3E0F12CD5CFDF91CF911F910F91AB
:101A0000FF900895FC0120812D3411F40C94400BBB
:101A1000089563E181E193E00E94221062E187E191
:101A200093E00E94221060E18DE193E00E94221079
:101A30006FE083E293E00E94221060E083E10E9465
:101A40006A2C60E082E10E946A2C60E080E10E94E2
:101A50006A2C60E08FE00E946A2C61E083E00E94C3
:101A60006A2C61E08EE00E946A2C61E084E00E94B2
:101A70006A2C61E08DE00E946A2C60E084E10E94A3
:101A80006A2C85ED92E00C944E1A26E040E052EC70
:101A900061E070E08DE194E00E94E52D0C94090D69
:101AA000DF92EF92FF920F931F93CF93DF93C3E7E1
:101AB000D3E00EE511E0F3E0C737DF07A9F1EE242C
:101AC000E394F12C8881811102C0E12CF12CF80102
:101AD000D1908F018D2D0E94D92CE816F90611F1B5
:101AE0008881882311F018821DC060E971E080E0D0
:101AF00090E00E94572B6D2D8FE693E00E948B2380
:101B00008FE693E00E94A52361E08FE693E00E94B8
:101B10001C248FE693E00E94D3238FE693E00E947B
:101B2000842488832196C7CFDF91CF911F910F9195
:101B3000FF90EF90DF9008950F931F93CF93DF9363
:101B400080E090E00E94CF0060E083E00E94A32C40
:101B500060E084E00E94A32C60E08EE00E94A32C51
:101B600060E08DE00E94A32C0E94500DCEE5D1E0F4
:101B700003E713E0F1E0C236DF0741F1F80181919C
:101B80008F01882309F18130A1F4688185E593E014
:101B90000E94132820E040E060E085E593E00E9489
:101BA000842820E040E060E085E593E00E948A28F8
:101BB0000BC0833049F4688184E393E00E94CA1C1F
:101BC00084E393E00E94CC1C2196D4CFDF91CF9187
:101BD0001F910F910895CF93DF938FE693E00E94BA
:101BE0008A2360E083E693E00E941A1B60E082E6AD
:101BF00093E00E94D32660E085E593E00E94F727FA
:101C000060E08FE493E00E941A2260E084E393E0B6
:101C10000E94C61C60E089E293E00E94DF14C1E1EB
:101C2000D3E060E0CE010E942E10269683E0C932F8
:101C3000D807B9F760E082E093E00E94E02660E018
:101C400089EF92E00E947C2560E086EE92E00E949F
:101C5000582660E081EE92E00E94CE2467E080EE9C
:101C600092E00E94011362E085ED92E00E942B1A3F
:101C700060E08FEC92E00E94301960E08AEC92E024
:101C80000E94B02760E08DEB92E00E94171160E0A7
:101C900088EB92E00E94991060E083EB92E00E9452
:101CA000A02460E087EA92E00E946D1360E080EA81
:101CB00092E00E94F51560E08FE992E00E940E220A
:101CC00060E088E992E00E94ED1B60E088E892E025
:101CD0000E943A1460E088E492E00E94461660E0B8
:101CE00083E492E00E94632760E08FE392E00E9429
:101CF000FC2460E08BE392E00E94B32860E086E37E
:101D000092E00E94A42260E082E392E00E943E1CE6
:101D1000C6E2D2E0CE010E94A629239682E0C23319
:101D2000D807C1F7DF91CF91089589EF92E00C9425
:101D30004C261F93CF93DF93C0E8D0E010E28DE1F3
:101D400094E00E94022D892B81F18DE194E00E94A4
:101D50001B2D20912002309121028A30C1F4C9014B
:101D60000197FC01E056FE4F40814D3011F49C017B
:101D7000F6CFF901E056FE4F108311821092210236
:101D80001092200280EA91E00E94020DD8CFF90162
:101D9000E056FE4F8083C9010196BE010E941935AD
:101DA0009093210280932002CACFDF91CF911F919F
:101DB000089585ED92E00E94EB1A0C94990E089517
:101DC00070E0FB01E655FF4FE491DC01EC93FB0171
:101DD000E254FF4FE491F0E0EE0FFF1FEE52FF4F91
:101DE00025913491FC013283218308951F93CF9371
:101DF000DF93FC011081C181D2819981812F80956F
:101E0000892389838A81812B8A838AE090E00E94DA
:101E10007F2B9881912381E009F480E0DF91CF91BD
:101E20001F910895FF920F931F93CF93DF93FC01AF
:101E30001081C181D281F8948981F12EF0948F2193
:101E400089838A81812B8A8378940DE7015041F13F
:101E500082E090E00E947F2B88818123B9F3F8947F
:101E60008A818F218A838981812B8983789480EE6E
:101E700091E00E947F2BF89489818F2189838A8148
:101E8000812B8A8386E490E00E947F2B88818123C6
:101E900001E009F000E078948AE991E00E947F2B4C
:101EA000802FDF91CF911F910F91FF9008951F9385
:101EB000CF93DF93FC011081C181D281912F909546
:101EC00060FF12C0F8948A8189238A838981812BDB
:101ED00089838AE090E00E947F2B8A81812B8A830C
:101EE000789487E390E011C0F8948A8189238A83EB
:101EF0008981812B898381E490E00E947F2B8A81F4
:101F0000812B8A83789485E090E0DF91CF911F91B7
:101F10000C947F2B0F931F93CF93DF93FC011081C1
:101F2000C181D281F8948981812B89838A81012F93
:101F3000009580238A8383E090E00E947F2B898133
:101F4000802389838A81812B8A838AE090E00E94A2
:101F50007F2BC881789485E390E00E947F2B1C231F
:101F600081E009F480E0DF91CF911F910F910895F6
:101F7000CF92DF92EF92FF920F931F93CF93DF9355
:101F80001F92CDB7DEB76C01E62E08E010E0FF240B
:101F9000F39461E09F2D9E2109F460E0C60149831E
:101FA0000E94570FFF0C01501109498101151105BD
:101FB00081F741111DC0F894D6011196ED91FC9165
:101FC000129791818C918095892381831196ED914F
:101FD000FC91129782819C91892B82831196ED91BD
:101FE000FC91129792818C918095892382837894B9
:101FF0000F90DF91CF911F910F91FF90EF90DF90A5
:10200000CF900895EF92FF920F931F93CF93DF939A
:102010008C01C8E0D0E0F12CEE24E394C8010E94CA
:102020008A0F8111FE28EE0C2197C1F78F2DDF91C9
:10203000CF911F910F91FF90EF90089540E06CECCD
:102040000C94B80FCF93DF93EC010E948B238CE2AA
:1020500091E09D838C83DF91CF9108950F931F931F
:10206000CF93DF931F92CDB7DEB78C0169830E94B7
:102070008A23F801158214826981C8010F90DF91CB
:10208000CF911F910F910C9422101F93CF93DF9348
:10209000EC016F3F710519F014F06FEF70E09B01D8
:1020A00061308FEF780714F421E03FEF8C819D8140
:1020B00028173907D1F13D832C83B901882777FD93
:1020C0008095982F37FD09C00E94F73223E333E350
:1020D00043E250E40E945C3210C00E94F73223E3D6
:1020E00033E343E250E40E945C329B01AC0160E0C8
:1020F00070E088EC92E40E9491310E94C932162F60
:10210000CE010E94A52362E0CE010E941C24CE01D4
:102110000E94A523612FCE010E941C2484EF91E030
:10212000DF91CF911F910C947F2BDF91CF911F9165
:1021300008950F931F93CF93DF931F92CDB7DEB710
:102140008C0169830E948A236981C8010F90DF9105
:10215000CF911F910F910C948B230C948B23EF92B2
:10216000FF921F93CF93DF931F92CDB7DEB77C0111
:10217000162F49830E94A5234981811120C0442341
:1021800011F063E001C064E0C7010E941C24C70194
:102190000E94A523811113C0112339F0115061E071
:1021A00001C0660F1A95EAF701C06FE0C7010F90F2
:1021B000DF91CF911F91FF90EF900C941C240F9012
:1021C000DF91CF911F91FF90EF900895CF93DF9310
:1021D000EC010E94A52381111CC062E0CE010E9487
:1021E0001C24CE010E94D323CE010E9484248C8320
:1021F0008C81823059F018F4813041F008C084306D
:1022000021F0883021F484E001C083E08C838C814C
:1022100001C080E0DF91CF910895CF93DF93EC016F
:102220000E948B2381E08C87DF91CF9108950F93DB
:102230001F93CF93DF931F92CDB7DEB78C016983D5
:102240000E948A236981C8010F90DF91CF911F916D
:102250000F910C940D11CF93DF93EC010E94A523F5
:1022600081111BC062E0CE010E941C24CE010E949D
:10227000A523811112C06C81CE010E941C246D81A6
:10228000CE010E941C246E81CE010E941C246F810D
:10229000CE01DF91CF910C941C24DF91CF91089552
:1022A0002F923F924F925F926F927F928F929F9266
:1022B000AF92BF92CF92DF92EF92FF920F931F9354
:1022C000CF93DF93CDB7DEB72F970FB6F894DEBF6D
:1022D0000FBECDBF8C012A013B01FC018485882300
:1022E00011F014860CC09A01AB01F801608571856C
:1022F000828593850E945832882309F469C1F801C8
:102300004086518662867386CE0101969C878B87B4
:102310008AE0EB85FC8511928A95E9F720E03CE3A1
:102320004CE156E4C301B2010E941F3487FD04C092
:1023300089E0F80184830EC020E030EC49E754ECDA
:10234000C301B2010E945832181644F080E1F8012E
:10235000848389E0858386838783D3C020E030E04F
:10236000A901C301B2010E945832811107C080E463
:10237000F8018483858386831782C3C020E030E020
:10238000A901C301B2010E94583287FF07C077FA42
:10239000709477F87094F1E0FD8701C01D8620E00D
:1023A00030E04AE754E4C301B2010E945C320E946B
:1023B000C9326983C301B2010E94C4329B01CB01BF
:1023C00068EE73E00E941935E4E6F0E0BF010E9478
:1023D00019356A83C901BF010E9419354AE0E42E0C
:1023E000F12CB7010E9419356B83C901B7010E9416
:1023F00019355C018C8320E030E040E251E4C301F8
:10240000B2010E942A340E94C432CB01B7010E945B
:1024100019356C018D8320E030E048EC52E4C301B3
:10242000B2010E942A340E94C432CB01B7010E943B
:1024300019354C018E8320E030E04AE754E4C301B3
:10244000B2010E942A340E94C432CB01B7010E941B
:1024500019359F878E878F83212CE22CF12CE1E0A8
:10246000F0E0EC0FFD1FEE0DFF1D3080311002C0BB
:102470002394F3CF20E030E040E85FE3C301B201F2
:102480000E941F3487FD10C0A32CFE01EE0DFF1D1E
:10249000C280FE01EE0DFF1D8380FE01EE0DFF1DCB
:1024A000848124E0221907C0BB24DD2499248E8571
:1024B0009F85992721E03D85313059F480E1F8016D
:1024C0008483A582C6828782223051F02130C9F4EC
:1024D0000DC0F801A482C58286828783233021F44F
:1024E0008681806286830DC0223029F4F8018581BF
:1024F0008062858306C0213021F4F80184818062E6
:102500008483F801848185FF12C08581811148C0D0
:102510008681811145C08781811142C0F801848183
:102520008F70878380E48483858386831EC0F8014F
:10253000858185FF0AC08681811143C08781811111
:1025400040C0F80185818F7035C0F801868185FF14
:102550000CC08781811109C086818F708783858136
:1025600086838481858380E48483C8012F960FB697
:10257000F894DEBF0FBECDBFDF91CF911F910F91B9
:10258000FF90EF90DF90CF90BF90AF909F908F9093
:102590007F906F905F904F903F902F900C942B11F5
:1025A000F801868181110DC0F8018781811109C070
:1025B000F801858187838481868380E48483858391
:1025C000D4CFF80187818111D0CFF8018681C6CFA1
:1025D0002F960FB6F894DEBF0FBECDBFDF91CF911F
:1025E0001F910F91FF90EF90DF90CF90BF90AF9031
:1025F0009F908F907F906F905F904F903F902F9023
:1026000008956093770308954F925F926F927F923F
:102610008F929F92AF92BF92CF92DF92EF92FF92F2
:102620000F931F93CF93DF9369017A019B0140E0E1
:1026300050E060E472E48FE090E00E944F35E901E1
:10264000890137FF02C00F5F1F4F1595079561E0A5
:10265000809177030E946A2CA8EEB3E0A70196014F
:102660000E946E354B015C01C12CD12C76012E01EC
:10267000662457FC6094762CC814D904EA04FB0441
:10268000B0F461E0809177030E94A32CC8010E94FE
:102690007F2B60E0809177030E94A32CC8010E94E9
:1026A0007F2BA895C40CD51CE61CF71CE5CFDF9149
:1026B000CF911F910F91FF90EF90DF90CF90BF903F
:1026C000AF909F908F907F906F905F904F90089504
:1026D000F8940E940413789408950F931F93CF9356
:1026E000DF931F92CDB7DEB78C0169830E948A23E6
:1026F0006981C8010F90DF91CF911F910F910C94C8
:102700008B230C948B23CF92DF92EF92FF920F9347
:102710001F93CF93DF93CDB7DEB728970FB6F8940A
:10272000DEBF0FBECDBF8C01CE0101967C0188E0DB
:10273000F70111928A95E9F7C8010E94A52381113A
:1027400035C062E0C8010E941C24C8010E94D32346
:102750006E01F9E0CF0ED11CC8010E948424F7015C
:1027600081937F01EC15FD05B9F78A8190E0982FE0
:1027700088272981822BF801958384838C8190E0BE
:10278000982F88272B81822B978386838E8190E0D8
:10279000982F88272D81822B91878087888590E0CC
:1027A000982F88272F81822B9387828728960FB6B0
:1027B000F894DEBF0FBECDBFDF91CF911F910F9177
:1027C000FF90EF90DF90CF900895CF93DF93EC01CF
:1027D0000E94A52381110AC064E0CE010E941C243E
:1027E00088EB9BE0DF91CF910C947F2BDF91CF9111
:1027F00008951F93CF93DF93EC01162F0E94A5231A
:10280000811110C063E0CE010E941C24CE010E9401
:10281000A523811107C0612FCE01DF91CF911F91B8
:102820000C941C24DF91CF911F9108950F931F9357
:10283000CF93DF931F92CDB7DEB78C0169830E94DF
:1028400083136981F801623039F0633041F06130FF
:1028500049F48481958108C08681978105C080856F
:10286000918502C0828593850F90DF91CF911F9152
:102870000F9108950F931F93CF93DF931F92CDB7BE
:10288000DEB78C0169830E948A23F80115821482C5
:1028900017821682118610866981C8010F90DF9118
:1028A000CF911F910F910C948B230C948B230F933A
:1028B0001F93CF93DF93EC010E94A52381112DC0BC
:1028C00062E0CE010E941C24CE010E94D32300E0CE
:1028D00010E0CE010E948424FE01E00FF11F8287E8
:1028E0000F5F1F4F06301105A1F78A8590E0982FE2
:1028F00088272B85822B9D838C838C8590E0982F55
:1029000088272D85822B9F838E838E8590E0982F3C
:1029100088272F85822B99878887DF91CF911F91F8
:102920000F9108950F931F93CF93DF931F92CDB70D
:10293000DEB78C0169830E9457146981662331F0E8
:10294000613041F4F8018681978107C0F8018481E4
:10295000958103C0F801808591850F90DF91CF911B
:102960001F910F9108950F931F93CF93DF93EC0165
:10297000062F10E0000F111F065F1E4F633050F04E
:10298000F8016081CE010E948B23F8018181898743
:1029900018860CC061E0F80181810E946A2CF80160
:1029A00080818D8381818C8381E088878CE291E0B6
:1029B0009F838E83DF91CF911F910F9108950F9385
:1029C0001F93CF93DF931F92CDB7DEB78C0169833E
:1029D0000E948A23F80117821682108611861286B9
:1029E0006981C8010F90DF91CF911F910F910C94D5
:1029F000B314EF92FF920F931F93CF93DF9300D006
:102A0000CDB7DEB77C01FC018285811109C06983E5
:102A10007A830E94500181E0F70182877A8169817F
:102A20008B016F3F710519F014F00FEF10E00130CA
:102A3000FFEF1F0714F401E01FEFF7018681978174
:102A40008017910709F4C8C017830683808517FD96
:102A50004EC0813079F58481873019F4848160E03B
:102A600006C0F7018481883089F4848161E00E9486
:102A7000A32CF7018581B8010F900F90DF91CF91C2
:102A80001F910F91FF90EF900C94E22BF70184813E
:102A9000893029F0F7018481863009F09DC0848156
:102AA00061E00E94A32CF70185816FEF70E0601B4D
:102AB000710BE2CFC7010E94A52362E0C7010E940B
:102AC0001C24C7010E94A523F7016185C7010E944C
:102AD0001C24B801882777FD8095982F0E94F73233
:102AE00023E333E343E250E40E945C3264C081306C
:102AF000F1F5F7018481873061F4848161E00E94FF
:102B0000A32CF701858166277727601B710B0E9434
:102B1000E22BF7018481883061F4848160E00E94B7
:102B2000A32CF701858166277727601B710B0E9414
:102B3000E22BF7018481893059F4858161E00E949C
:102B4000A32CF7018481B80161507F4F0E94E22BD2
:102B5000F7018481863009F03FC0858161E00E94E1
:102B6000A32CF7018481B80161507F4F85CFC70145
:102B70000E94A52362E0C7010E941C24C7010E9495
:102B8000A523F7016185C7010E941C24B80188278D
:102B900077FD8095982F0E94F73223E333E343E2D9
:102BA00050E40E945C329B01AC0160E070E088EC74
:102BB00092E40E9491310E94C932C7010E941C24F4
:102BC00084EF91E00F900F90DF91CF911F910F91C3
:102BD000FF90EF900C947F2B0F900F90DF91CF918F
:102BE0001F910F91FF90EF9008950F931F93CF9334
:102BF000DF931F92CDB7DEB78C0169830E948A23D1
:102C00006981C8010F90DF91CF911F910F910C94B2
:102C10008B230C948B23CF93DF93EC010E94A5238D
:102C2000811113C062E0CE010E941C24CE010E94DB
:102C3000D323CE010E9484248C83CE010E9484245D
:102C40008D83CE010E9484248E83DF91CF910895DD
:102C50000F931F93CF93DF931F92CDB7DEB78C01F5
:102C600069830E940B166981613029F0633031F469
:102C7000F801868105C0F801848102C0F8018581D0
:102C80000F90DF91CF911F910F9108951F93CF93D4
:102C9000DF93EC01162F0E948A2340E050E063E8A6
:102CA00072E44C835D836E837F83188619861A864F
:102CB0001B861C861D861E861F86188A198A1A8AFC
:102CC0001B8A1C8A1D8A1E8A1F8A188E198E1A8ECC
:102CD0001B8E1C8E1D8E1E8E1F8E19A218A21BA26B
:102CE0001AA21DA21CA21EA21FA218A619A61AA6ED
:102CF0001BA61CA61DA61EA61FA618AA19AA612FF0
:102D0000CE01DF91CF911F910C948B230C948B23D8
:102D10002F923F924F925F926F927F928F929F92EB
:102D2000AF92BF92CF92DF92EF92FF920F931F93D9
:102D3000CF93DF93CDB7DEB768970FB6F894DEBFB9
:102D40000FBECDBF1C010E94282B4B015C01C0901F
:102D50007803D0907903E0907A03F0907B030E948F
:102D6000282B609378037093790380937A03909370
:102D70007B03C1010E94A523811114C262E0C1013D
:102D80000E941C24C1010E94D32300E010E0C10175
:102D90000E948424F101E00FF11F82AB0F5F1F4FEF
:102DA0000E301105A1F7C501B4016C197D098E091A
:102DB0009F090E94F53220E030E04AE754E40E9487
:102DC0005C326B017C01D101D2964C90D297512C90
:102DD000542C4424D3968C91D397482A91965C9294
:102DE0004E929097D4966C90D497712C762C662442
:102DF000D5968C91D597682A93967C926E929297ED
:102E0000D6960C91D69710E0102F0027D7968C916C
:102E1000D797082B95961C930E93949714968D90A4
:102E20009D90AD90BC901797DA966C91DA9770E010
:102E3000762F6627DB968C91682B882777FD809507
:102E4000982F0E94F732F10126A137A140A551A584
:102E50000E949131A50194010E945C326D837E83B2
:102E60008F839887D10154966D937D938D939C9316
:102E70005797DC966C91DC9770E0762F6627DD968D
:102E80008C91682B882777FD8095982F0E94F732C8
:102E9000F10122A533A544A555A50E949131A501B4
:102EA00094010E945C3269877A878B879C87D10165
:102EB00058966D937D938D939C935B97DE966C9162
:102EC000DE9770E0762F6627DF968C91682B882737
:102ED00077FD8095982F0E94F732F10126A537A53E
:102EE00040A951A90E949131A50194010E945C3230
:102EF0006D877E878F87988BD1015C966D937D93CC
:102F00008D939C935F97B301882777FD8095982FC9
:102F10000E94F73269837A838B839C83B801882768
:102F200077FD8095982F0E94F7329B01AC010E949B
:102F30002A34698B7A8B8B8B9C8B29813A814B81CC
:102F40005C81CA01B9010E942A3429893A894B89D6
:102F50005C890E9492310E94B1349B01AC01B201A4
:102F6000882777FD8095982F2D8B3E8B4F8B588F20
:102F70000E94F7324B015C012D893E894F89588DA3
:102F80000E94053220E030E044E353E40E942A34FA
:102F90002AED3FE049E450E40E945C322B013C0101
:102FA000A5019401C501B4010E942A3429893A89F6
:102FB0004B895C890E9492310E94B1349B01AC0123
:102FC00069817A818B819C810E94053220E030E00A
:102FD00044E353E40E942A342AED3FE049E450E4FC
:102FE0000E945C324B015C01A701960169857A85DC
:102FF0008B859C851016110624F50E942A349B01AE
:10300000AC01F10160857185828593850E949131C3
:10301000D10118966D937D938D939C931B97A70177
:1030200096016D817E818F8198850E942A349B0153
:10303000AC01F10164857585868597850E94923182
:1030400023C00E942A349B01AC01F1016085718587
:10305000828593850E949231D10118966D937D935C
:103060008D939C931B97A70196016D817E818F8123
:1030700098850E942A349B01AC01F1016485758515
:10308000868597850E949131D1011C966D937D9321
:103090008D939C931F97A70196016D857E858F85E3
:1030A00098890E942A34F101208931894289538903
:1030B0000E9492316B017C0120E030E044EB53E44C
:1030C0000E945C320E94323320E030E044EB53E453
:1030D0000E942A349B01AC01C701B6010E949131C4
:1030E0006B017C0120E030E044E353E40E941F3494
:1030F000181644F0D1015096CD92DD92ED92FC92DB
:1031000053970DC020E030E044EB53E4C701B60113
:103110000E949131F101608B718B828B938B28E43B
:1031200031EE4AE75FE3D1011C966D917D918D915F
:103130009C911F970E942A346B017C012AE037ED95
:1031400043EA5CE3C501B4010E942A349B01AC014F
:10315000C701B6010E949231F101648775878687A5
:10316000978728E431EE4AE75FE3608571858285C1
:1031700093850E942A346B017C012AE037ED43EAF3
:103180005CE3C301B2010E942A349B01AC01C70178
:10319000B6010E949231D10118966D937D938D9363
:1031A0009C931B9768960FB6F894DEBF0FBECDBFF9
:1031B000DF91CF911F910F91FF90EF90DF90CF9013
:1031C000BF90AF909F908F907F906F905F904F9047
:1031D0003F902F9008950F931F93CF93DF931F92EB
:1031E000CDB7DEB78C0169830E9488166981623091
:1031F000E1F050F4662399F0613049F5F8016485F7
:1032000075858685978526C06430D9F0A0F0653035
:10321000F1F4F801648D758D868D978D1BC0F801D2
:10322000608571858285938515C0F80160897189F3
:10323000828993890FC0F801648975898689978985
:1032400009C0F801608D718D828D938D03C060E09F
:1032500070E0CB010F90DF91CF911F910F910895F6
:103260000F931F93CF93DF931F92CDB7DEB78C01DF
:1032700069830E948A236981C8010F90DF91CF91F1
:103280001F910F910C948B230C948B23CF93DF937E
:10329000EC010E94A52381110FC062E0CE010E94C3
:1032A0001C24CE010E94D323CE010E9484248C834F
:1032B000CE010E9484248D83DF91CF910895CF9316
:1032C000DF93EC0161110E9446198C8190E0DF913F
:1032D000CF910895CF93DF93EC0161110E944619BD
:1032E0008D8190E0DF91CF9108951F920F920FB6DC
:1032F0000F9211240F931F932F933F934F935F933C
:103300006F937F938F939F93AF93BF93CF93EF93DD
:10331000FF93809180030E94D92CC82F20918703AE
:10332000309188032F5F3F4F3093880320938703AA
:103330008091ED03843618F085E0809382039091AC
:103340008203933079F018F4923039F070C09430E1
:1033500011F1953009F44AC06AC0C11168C01092D9
:10336000ED0329C0C13009F062C0E091ED0381E0B6
:103370008E0F8093ED03F0E0809187039091880396
:10338000EF57FC4F8087109288031092870384E0E8
:10339000809382034CC0C11114C0E091ED0381E021
:1033A0008E0F8093ED03F0E0809187039091880366
:1033B000EF57FC4F8087109288031092870383E0B9
:1033C000E7CF80918703909188038536910578F146
:1033D00085E0809382030E94282B6093830370937F
:1033E0008403809385039093860321C00E94282B39
:1033F000009183031091840320918503309186030B
:10340000601B710B820B930B693C71058105910563
:1034100040F01092ED03109288031092870382E02F
:10342000B7CFC11104C01092880310928703FF9197
:10343000EF91CF91BF91AF919F918F917F916F91BC
:103440005F914F913F912F911F910F910F900FBE60
:103450000F901F901895609380038091800360E027
:103460000E946A2C8091800380938103089580914B
:103470008003861759F0609380038091800360E099
:103480000E946A2C8091800380938103089521E03B
:10349000FC018285861320E0822F0895F89482E053
:1034A0008093B0008093B10094E69093B3001092A3
:1034B000B2008093700078941092ED0380938203A1
:1034C00008951F93CF93DF93FC01A681B7818C9160
:1034D00086588D3558F48085918583309105A1F407
:1034E00011968C9111978152893118F080E090E00B
:1034F00044C012968C9188508730C0F7158281E0C5
:10350000808381E090E039C0833491057CF311968B
:103510008C91119783548F3248F782E090E040E01D
:1035200050E0BA019D012F5F3F4FEC01CA0FDB1F36
:10353000C881C850C730D0F6E901C80FD91F18811B
:103540001751133180F476956795579547957068B4
:1035500002968234910549F780E285834183528344
:1035600063837483CCCFC881C850C73008F0BECF06
:103570007695679557954795EBCFDF91CF911F9142
:1035800008950F931F93CF93DF93EC0189E893E0A5
:103590009F838E838091ED0390E099878887809147
:1035A0008203853081F4CE010E94611A8C01CE0124
:1035B0000115110529F00E944E1A01E010E005C026
:1035C0000E944E1A02C000E010E0C801DF91CF91C6
:1035D0001F910F9108950F931F93CF93DF93EC01E9
:1035E0000E94C11A892B69F00E94282B60937C03EA
:1035F00070937D0380937E0390937F038B818A87F2
:1036000014C00E94282B00917C0310917D0320910F
:103610007E0330917F03601B710B820B930B693C1F
:1036200071058105910508F01A86DF91CF911F91F0
:103630000F9108950F931F93CF93DF931F92CDB7F0
:10364000DEB78C0169830E948A23F80115821682F5
:10365000178210861186128613866981C8010F9021
:10366000DF91CF911F910F910C948B230C948B239E
:10367000CF93DF93EC010E94A523811111C062E07A
:10368000CE010E941C24CE010E94D323CE010E94B1
:1036900084248C8388E293E20E947F2B8C8101C07A
:1036A00080E0DF91CF910895CF93DF93EC010E94EA
:1036B000A523811123C063E0CE010E941C24CE010A
:1036C0000E94A52381111AC06E81CE010E941C2484
:1036D0006F81CE010E941C246885CE010E941C24AB
:1036E0006985CE010E941C246A85CE010E941C249B
:1036F0006B85CE01DF91CF910C941C24DF91CF918B
:1037000008950F93FC0160FF03C046832783008761
:1037100061FF03C0418722870387637021F0CF01D7
:103720000F910C94541B0F9108951F93CF93DF9327
:10373000EC01162F0E94A523811111C064E0CE0177
:103740000E941C24CE010E94A523811108C01D8364
:103750006D81CE01DF91CF911F910C941C24DF91DC
:10376000CF911F910895FC01658161600C94951BB8
:10377000FC0165816E7F0C94951BFC016581626084
:103780000C94951BFC0165816D7F0C94951B0F9328
:103790001F93CF93DF93EC01062F142F60FF07C018
:1037A000442319F00E94B31B02C00E94B81B01FF02
:1037B0000FC0CE01112331F0DF91CF911F910F91F6
:1037C0000C94BD1BDF91CF911F910F910C94C21BE4
:1037D000DF91CF911F910F9108950F931F93CF9376
:1037E000DF931F92CDB7DEB78C0169830E948A23D5
:1037F0006981C8010F90DF91CF911F910F910C94B7
:103800008B230C948B23CF93DF93EC010E94A52391
:10381000811113C062E0CE010E941C24CE010E94DF
:10382000D323CE010E9484248C83CE010E94842461
:103830008D83CE010E9484248E83DF91CF910895E1
:103840000F931F93CF93DF931F92CDB7DEB78C01F9
:1038500069830E94031C6981662329F0613031F479
:10386000F801858105C0F801848102C0F8018681D4
:103870000F90DF91CF911F910F9108950F931F9398
:10388000CF93DF931F92CDB7DEB78C0169830E947F
:103890008A236981C8010F90DF91CF911F910F9109
:1038A0000C948B230C948B23CF93DF93EC010E9419
:1038B000A523811120C062E0CE010E941C24CE010C
:1038C0000E94D323CE010E948424682F70E080E000
:1038D00090E00E94F73220E030EC4FE754E40E9481
:1038E0002A3420E030E04FE753E40E945C320E942B
:1038F000C932CB0102C080E090E0DF91CF91089502
:103900000F931F93CF93DF931F92CDB7DEB78C0138
:1039100069830E94A523698181110DC0662311F07E
:1039200063E001C064E0C8010F90DF91CF911F9167
:103930000F910C941C240F90DF91CF911F910F9148
:1039400008950F931F93CF93DF9300D01F92CDB7AD
:10395000DEB78C012B834A8369830E948A23F80196
:10396000349685E1DF011D928A95E9F74A81F801D5
:10397000418F2B81228F6981C8010F900F900F908A
:10398000DF91CF911F910F910C948B2325E04EE096
:103990000C94A11C0C948B23CF93DF93EC01298D05
:1039A00080E090E0821730F4FE01E80FF91F1482E6
:1039B0000196F8CFCE010E94A52381110AC065E0CF
:1039C000CE010E941C2488E893E1DF91CF910C94F2
:1039D0007F2BDF91CF9108955F926F927F928F92AC
:1039E0009F92AF92BF92CF92DF92EF92FF920F938E
:1039F0001F93CF93DF93EC01542E4901E98CF12CF6
:103A00008A8DA62EBB24A7FCB094222733272E191B
:103A10003F092A153B0594F4AE14BF047CF490E0F2
:103A2000C42EDD24C7FCD09422273327281B390B52
:103A30002C153D051CF4C816D90694F0CE01DF9173
:103A4000CF911F910F91FF90EF90DF90CF90BF909B
:103A5000AF909F908F907F906F905F900C94CC1C54
:103A6000CE010E94A52362E0CE010E941C24CE015B
:103A70000E94A523002711270A191B0937016A187C
:103A80007B08AA24BB24AC18BD080615170504F54D
:103A900017FD17C00E151F05A4F4F401E00FF11F68
:103AA000608157FC06C00C2C01C0660F0A94EAF72F
:103AB00009C070E00A2C02C0759567950A94E2F778
:103AC00001C060E0CE010E941C240F5F1F4FDDCFBC
:103AD000DF91CF911F910F91FF90EF90DF90CF90EA
:103AE000BF90AF909F908F907F906F905F90089560
:103AF0000F931F93CF93DF93EC01162F042F898D23
:103B00006817D0F4CE010E94A523811115C063E08F
:103B1000CE010E941C24CE010E94A52381110CC05D
:103B2000612FCE010E941C24602FCE01DF91CF9126
:103B30001F910F910C941C24DF91CF911F910F9135
:103B40000895CF93DF93E62FF0E0DC0159962C9196
:103B5000599730E0E217F307C4F4242F30E05A9667
:103B6000AC91B0E02A173B0784F4E80FF91F5481A9
:103B700021E030E001C0220F4A95EAF7522B54832E
:103B80004481DF91CF910C94781DDF91CF910895FE
:103B9000CF93DF93E62FF0E0DC0159962C915997F3
:103BA00030E0E217F307CCF4242F30E05A96AC91C2
:103BB000B0E02A173B078CF4E80FF91F548121E08D
:103BC00030E001C0220F4A95EAF72095252324838F
:103BD0004481DF91CF910C94781DDF91CF910895AE
:103BE000FF920F931F93CF93DF93EC01F62E042FD8
:103BF000122F0E94A52381111EC067E0CE010E94F2
:103C00001C24CE010E94A523811115C06F2DCE0169
:103C10000E941C24602FCE010E941C24612FCE0123
:103C20000E941C2488EB9BE0DF91CF911F910F91A4
:103C3000FF900C947F2BDF91CF911F910F91FF90FC
:103C40000895AF92BF92CF92DF92EF92FF920F93BF
:103C50001F93CF93DF93EC01B62EA42E790100E0E1
:103C600010E0C62EDD24C7FCD094C8018C0D9D1D2C
:103C70008B3F2FEF92071CF1298D30E082179307BD
:103C800024F5F701208121110EC08C01898D90E06F
:103C900008171907D4F440E0602FCE010E94781D68
:103CA0000F5F1F4FF3CF21526B2D600F2E3518F091
:103CB00023E040E001C04A2DCE010E94F01D0A5FC2
:103CC0001F4FFFEFEF1AFF0AD0CF1FEF1B0D1B1482
:103CD0003CF440E0612FCE010E94781DB12EF5CF5B
:103CE000DF91CF911F910F91FF90EF90DF90CF90D8
:103CF000BF90AF900895EF92FF920F931F93CF93D1
:103D0000DF93EC01862FF42E022F1AE0612F0E9420
:103D10000D35E92E2FE0280F40E06FEFCE010E9415
:103D2000F01D2FE02E0D40E064E0CE010E94F01D5A
:103D30008F2D612F0E940D35192F2FE0280F40E0A5
:103D40006BE0CE010E94F01D2FE0210F40E060E10A
:103D5000CE010E94F01D002311F044E101C040E0BB
:103D60006AE0CE01DF91CF911F910F91FF90EF900C
:103D70000C94781D2F923F924F925F926F927F9298
:103D80008F929F92AF92BF92CF92DF92EF92FF926B
:103D90000F931F93CF93DF93CDB7DEB72D970FB659
:103DA000F894DEBF0FBECDBF8C012A013B01CE01CE
:103DB00001969C878B878AE0EB85FC8511928A951A
:103DC000E9F720E030EC49E754E4C301B2010E9476
:103DD0001F3487FD04C028E140E06FEF0DC020E0F4
:103DE00030E046EC52ECC301B2010E945832181682
:103DF00054F12CE040E060E0C8010E94F01D28E191
:103E000040E064E0C8010E94F01D28E140E069E064
:103E1000C8012D960FB6F894DEBF0FBECDBFDF915F
:103E2000CF911F910F91FF90EF90DF90CF90BF90B7
:103E3000AF909F908F907F906F905F904F903F904A
:103E40002F900C94F01D20E030E0A901C301B201D5
:103E50000E945832811102C02FE0D8CF20E030E01C
:103E6000A901C301B2010E94583287FF07C077FA47
:103E7000709477F87094F1E0FD8701C01D8620E012
:103E800030E04AE754E4C301B2010E945C320E9470
:103E9000C9326983C301B2010E94C4329B01CB01C4
:103EA00068EE73E00E941935E4E6F0E0BF010E947D
:103EB00019356A83C901BF010E941935EAE0EE2E67
:103EC000F12CB7010E9419356B83C901B7010E941B
:103ED00019356C018C8320E030E040E251E4C301ED
:103EE000B2010E942A340E94C432CB01B7010E9461
:103EF00019354C018D8320E030E048EC52E4C301D9
:103F0000B2010E942A340E94C432CB01B7010E9440
:103F100019351C018E8320E030E04AE754E4C301E8
:103F2000B2010E942A340E94C432CB01B7010E9420
:103F300019358F8380E0A82EB12CE1E0F0E0EC0F82
:103F4000FD1FEA0DFB1DF080F11002C08F5FF3CF63
:103F500020E030E040E85FE3C301B2010E941F347B
:103F600087FD0DC0CF2CD12CFE01EA0DFB1DE28098
:103F7000F12CFE01EA0DFB1DA380B12C05C0DD2450
:103F80007401FF245101BB248D85813009F071C17A
:103F900020E030E040E251E4C301B2010E941F344E
:103FA00087FD16C02CE040E06FEFC8010E94F01DB5
:103FB0002FE02C0D40E064E0C8010E94F01D2FE0CE
:103FC0002E0D40E0CA94CD2809F021CF68E020CF23
:103FD00020E030E040E85FE3C301B2010E941F34FB
:103FE00087FDFDC1E114F10409F046C0AB2809F0DA
:103FF00043C023E040E060E0C8010E94F01DC6011C
:104000008B7F039799F42FE02C0D40E068E0C80106
:104010000E94F01D44E066E0C8010E94781D44E063
:1040200067E0C8010E94781D44E021C1E4E0CE169B
:10403000D10499F423E140E068E0C8010E94F01D3A
:1040400044E065E0C8010E94781D44E066E0C801D4
:104050000E94781D44E067E0A7C123E040E060E0F3
:10406000C8010E94F01D2CE040E065E0C8010E94FC
:10407000F01D2FE02C0DCACEF1E0CF16D10409F0CF
:1040800047C0C70101972CE040E0029790F183E020
:10409000E816F10461F460E0C8010E94F01D20E11F
:1040A00040E064E0C8010E94F01D22E12EC194E0CE
:1040B000E916F10471F46FEFC8010E94F01D20E1D0
:1040C00040E063E0C8010E94F01D23E140E068E0A9
:1040D000CAC0E7E0EE16F10461F460E0C8010E9496
:1040E000F01D20E140E064E0C8010E94F01D26E1DF
:1040F0000CC16FEFC8010E94F01D20E140E063E0B9
:10410000C8010E94F01D2FE02E0D40E069E0ABC019
:10411000F2E0CF16D10409F044C02CE040E06FEF8C
:1041200082E0E816F10421F0C7010497029700F538
:10413000C8010E94F01D21E140E063E0C8010E9437
:10414000F01D2FE02E0D40E092E0E916F10421F081
:10415000E5E0EE16F10411F469E001C068E0C80181
:104160000E94F01D42E067E0C8010E94781D7EC0F9
:10417000C801F1E0EF16F10449F40E94F01D21E1BD
:1041800040E063E0C8010E94F01DB9C00E94F01D2C
:1041900021E140E063E0C8010E94F01D2FE02E0DF8
:1041A000B4C083E0C816D10459F57FE0D72EDE0CE9
:1041B000C701039722E140E062E0029720F097E018
:1041C000E916F10439F4C8010E94F01D2D2D40E0DC
:1041D00068E006C0C8010E94F01D2D2D40E069E096
:1041E000C8010E94F01D44E060E0C8010E94781DF3
:1041F00044E061E0C8010E94781D44E062E0B4CF71
:10420000EFE0CE0EE114F10411F42C2DFFCD2CE0E3
:1042100040E06FEFC8010E94F01D2C2D40E063E0EC
:10422000C8010E94F01D6FE0D62EDE0CC7018D7F05
:104230002D2D40E0019711F46AE001C069E0C8014A
:104240000E94F01D40E169E0C8010E94781D2D2DFB
:1042500040E069E0F2E0EF16F10429F085E0E816AD
:10426000F10409F054C0C8010E94F01D40E168E06B
:104270009BC020E030E048EC52E4C301B2010E9450
:104280001F3487FD19C091E0C916D10421F420E143
:1042900040E060E004C02FE02C0D40E06FEFC8016B
:1042A0000E94F01D2FE02E0D40E064E0C8010E9446
:1042B000F01D2FE02A0DAACD20E030E040E251E4CD
:1042C000C301B2010E941F345FE0952E9C0C87FD54
:1042D00024C0292D40E06FEFC8010E94F01D2FE09F
:1042E0002E0D40E0CA94CD2811F463E001C064E0D3
:1042F000C8010E94F01DF1E0AF16B10421F420E1E5
:1043000040E06AE004C02FE02A0D40E069E0C80107
:104310000E94F01D40E169E047C020E030E040E845
:104320005FE3C301B2010E941F34292D40E06FEF0B
:1043300087FD17C0C8010E94F01D81E0E816F10456
:1043400021F420E140E065E004C02FE02E0D40E0C4
:1043500064E0C8010E94F01D91E0A916B104D9F4EF
:1043600016C0C8010E94F01DE1E0EE16F10421F430
:1043700020E140E065E004C02FE02E0D40E064E065
:10438000C8010E94F01DF1E0AF16B10421F420E154
:1043900040E06AE004C02FE02A0D40E069E0C80177
:1043A0000E94F01D40E164E0C8012D960FB6F8941C
:1043B000DEBF0FBECDBFDF91CF911F910F91FF9058
:1043C000EF90DF90CF90BF90AF909F908F907F90B5
:1043D0006F905F904F903F902F900C94781D2D968A
:1043E0000FB6F894DEBF0FBECDBFDF91CF911F9106
:1043F0000F91FF90EF90DF90CF90BF90AF909F9084
:104400008F907F906F905F904F903F902F90089586
:10441000FC01862F608360E00C946A2C0C940822C7
:10442000FC0180810E94D92C21E0892B09F420E035
:10443000822F08950F931F93CF93DF931F92CDB7D1
:10444000DEB78C0169830E948A236981C8010F90BD
:10445000DF91CF911F910F910C948B230C948B23A0
:10446000CF93DF93EC010E94A52381110FC062E07E
:10447000CE010E941C24CE010E94D323CE010E94B3
:1044800084248C83CE010E9484248D83DF91CF917C
:104490000895FC01648170E080E090E00E94F732B2
:1044A00020E030E04FE753E40E945C329B01AC0116
:1044B00060E070E080E89FE30E94913120E030EC02
:1044C0004FE754E40E942A340E94C932CB01089578
:1044D000FC01658170E080E090E00E94F73220E00E
:1044E00030E04FE753E40E945C329B01AC0160E096
:1044F00070E080E89FE30E94913120E030EC4FE7CC
:1045000054E40E942A340E94C932CB0108950F93CB
:104510001F93CF93DF931F92CDB7DEB78C016983D2
:104520000E9430226981C801623039F40F90DF9116
:10453000CF911F910F910C9468220F90DF91CF9132
:104540001F910F910C9449220F931F93CF93DF93E8
:104550001F92CDB7DEB78C0169830E948A236981DF
:10456000C8010F90DF91CF911F910F910C948B2375
:104570000C948B230F931F93CF93DF93EC01162F93
:10458000072F0E94A52381111BC062E0CE010E946B
:104590001C24CE010E94A523811112C0602FCE01E0
:1045A0000E941C24612FCE010E941C246CE370E049
:1045B00080E090E0DF91CF911F910F910C94572BE9
:1045C000DF91CF911F910F9108951F93CF93DF93A8
:1045D000EC01162F0E94A523811116C063E0CE01C5
:1045E0000E941C24CE010E94A52381110DC0612FC1
:1045F000CE010E941C246CE370E080E090E0DF912B
:10460000CF911F910C94572BDF91CF911F9108955B
:10461000CF93DF93EC010E94A52381110CC064E0CD
:10462000CE010E941C246CE370E080E090E0DF91FA
:10463000CF910C94572BDF91CF910895CF93DF93B7
:10464000EC010E94A52381110CC065E0CE010E94FF
:104650001C246CE370E080E090E0DF91CF910C943B
:10466000572BDF91CF910895CF93DF93EC010E94F8
:10467000A52381110CC066E0CE010E941C246CE3CE
:1046800070E080E090E0DF91CF910C94572BDF91A8
:10469000CF9108951F93CF93DF93EC01162F6230D3
:1046A00011F06430D9F4CE010E94A523811116C007
:1046B00067E0CE010E941C24CE010E94A523811137
:1046C0000DC0612FCE010E941C2462ED70E080E0DD
:1046D00090E0DF91CF911F910C94572BDF91CF91F8
:1046E0001F910895CF93DF93EC010E94A5238111C0
:1046F0000DC068E0CE010E941C24CE010E94D3238D
:10470000CE010E9484248C838C8101C082E0DF91E1
:10471000CF9108950895DC016C9370E0FB01E6559C
:10472000FF4FE4911196EC931197FB01E254FF4F78
:10473000E491F0E0EE0FFF1FEE52FF4F8591949150
:1047400013969C938E9312970895FF920F931F9345
:10475000CF93DF938C01FC01F180C281D3818981E9
:104760008F2989839A818F2D809589238A8380EE72
:1047700091E00E947F2B60E0F80180810E946A2C0A
:1047800082E390E00E947F2BC88184E690E00E9443
:104790007F2BFC2281E009F480E0DF91CF911F9113
:1047A0000F91FF900895AF92BF92CF92DF92EF9258
:1047B000FF920F931F93CF93DF938C01FC01B18085
:1047C000C281D3810E94282B6B017C018981AB2C93
:1047D000A0948A2189838A818B298A8388818B216D
:1047E00069F00E94282B6C197D098E099F09653696
:1047F00071058105910590F380E013C088818B21BC
:10480000E9F389818B2989838A818A218A838EE1D0
:1048100090E00E947F2B60E0F80180810E946A2C6A
:1048200081E0DF91CF911F910F91FF90EF90DF908A
:10483000CF90BF90AF9008950F931F93CF93DF93C6
:10484000EC01062F18E0F89460E088810E94A32C08
:1048500061E088810E946A2C85E090E00E947F2BB5
:1048600000FF02C061E001C060E088810E94A32CCB
:10487000069578948EE190E00E947F2B61E088811C
:104880000E94A32C85E090E00E947F2B1150D9F666
:1048900060E08881DF91CF911F910F910C946A2C79
:1048A000CF92DF92EF92FF921F93CF93DF93FC01A1
:1048B0001181C281D3810E94282B6B017C018881E8
:1048C000812359F00E94282B6C197D098E099F09BC
:1048D000643071058105910590F3F8948EE190E0C4
:1048E0000E947F2BC881789488E290E00E947F2B01
:1048F0001C2381E009F480E0DF91CF911F91FF90AC
:10490000EF90DF90CF9008950F931F93CF93DF9395
:10491000EC0160E088810E946A2C08E010E0CE0182
:104920000E94502420E8829FC00111241695182B64
:104930000150A9F7812FDF91CF911F910F91089519
:104940000F931F93CF93DF931F92CDB7DEB78C01E8
:1049500069830E948A236981C8010F90DF91CF91FA
:104960001F910F910C948B230C948B23CF93DF9387
:10497000EC010E94A52381110DC062E0CE010E94CE
:104980001C24CE010E94D323CE010E9484248C8358
:104990008C8101C080E0DF91CF9108950F931F9328
:1049A000CF93DF931F92CDB7DEB78C0169830E944E
:1049B0008A236981C8010F90DF91CF911F910F91D8
:1049C0000C948B230C948B23CF93DF93EC010E94E8
:1049D000A52381110DC062E0CE010E941C24CE01EE
:1049E0000E94D323CE010E9484248C838C8101C039
:1049F00080E0DF91CF9108950F931F93CF93DF93C2
:104A00001F92CDB7DEB78C0169830E948A2369812A
:104A1000C8010F90DF91CF911F910F910C948B23C0
:104A20000C948B231F93CF93DF93EC01162F0E94DE
:104A3000A52381110EC062E0CE010E941C24CE018C
:104A40000E94A523612FCE01DF91CF911F910C947D
:104A50001C24DF91CF911F910895EF92FF920F9345
:104A60001F93CF93DF931F92CDB7DEB77C01DC019C
:104A700012968D919C911397062F10E0009749F0A4
:104A80002D913C912017310779F169830E943A36C4
:104A90006981F70111830083F3E06F9FC001112446
:104AA0000E94A235D70113969C938E931297892B5F
:104AB00021F482E691E00E94F33680E090E0F70175
:104AC000408151819A01220F331F240F351F821715
:104AD000930750F4D7011296ED91FC911397E80FCC
:104AE000F91F10820196EBCF0F90DF91CF911F91AC
:104AF0000F91FF90EF900895CF93DF93EC01862FF5
:104B0000262F30E0F901E655FF4FE491E887F901DF
:104B1000E254FF4FE491F0E0EE0FFF1FE452FF4F2D
:104B2000259134913D832C8361E00E946A2C60E2E0
:104B3000CE01DF91CF910C942D25CF93DF93EC0123
:104B4000862F262F30E0F901E655FF4FE491E887E4
:104B5000F901E254FF4FE491F0E0EE0FFF1FE45241
:104B6000FF4F259134913D832C8361E00E946A2C94
:104B700060E2CE01DF91CF910C942D250F93FC01C3
:104B8000A62FB0E080819181A817B907B8F4862FCD
:104B9000880F860F90E0A281B381A80FB91F2C93D4
:104BA000A281B381A80FB91F11964C930280F381A3
:104BB000E02DE80FF91F028381E001C080E00F9132
:104BC0000895CF92DF92EF92FF920F931F93CF93AE
:104BD000DF937C01142FD22EC02E611113C0C0E0D0
:104BE000D0E0F70180819181C817D90748F40C2DD6
:104BF0002D2D412F6C2FC7010E94BE252196F1CF8C
:104C000081E004C061500E94BE2580E0DF91CF9119
:104C10001F910F91FF90EF90DF90CF9008950F9329
:104C20001F93D8013FB7F8949C91822F80958923D8
:104C3000292BFB01460F571FE417F50781F09191CF
:104C400068E02C9300C097FF8C93990F00C000C0C0
:104C500000C008F48C9300C06A9599F7EDCF3FBF70
:104C60001F910F9108950F931F93FC0104811581EB
:104C700020813181A901440F551F420F531F6281CA
:104C8000738120850E940F2661E070E080E090E053
:104C90001F910F910C94572BCF93DF93EC018A81D6
:104CA0009B810E943A361B821A82DF91CF91089530
:104CB0000F931F93CF93DF931F92CDB7DEB78C0175
:104CC00069830E948A23F80134968FE0DF011D92E8
:104CD0008A95E9F76981C8010F90DF91CF911F9103
:104CE0000F910C948B230C948B230F93611116C09E
:104CF00060E070E0FC01E60FF71F2483FB013196B2
:104D0000E80FF91F4483FB013296E80FF91F048373
:104D10006D5F7F4F6F30710569F718C06630B0F472
:104D200070E061507109E62FEE0FE60FF0E0DC0154
:104D3000AE0FBF1F14962C93DF011196A80FB91F59
:104D400014964C933296E80FF91F04830F9108953F
:104D50000F931F93CF93DF93EC010E94A523811142
:104D600017C062E0CE010E941C24CE010E94A52340
:104D700081110EC000E010E0FE01E00FF11F648120
:104D8000CE010E941C240F5F1F4F0F301105A1F7A9
:104D9000DF91CF911F910F910895FC0160830895D9
:104DA000FC01608308950C94CD26FC0180810E9453
:104DB000C52B2FEF33E0A901481B590BCA010895F9
:104DC0000F931F93CF93DF931F92CDB7DEB78C0164
:104DD00069830E94DF0E6981F8016687C8010F9020
:104DE000DF91CF911F910F910C94E00E0C94E00E87
:104DF000CF92DF92EF92FF920F931F93CF93DF93A7
:104E0000CDB7DEB72C970FB6F894DEBF0FBECDBF7F
:104E10008C010E94120FC8010E941E1040E064E441
:104E2000C8010E94B80F0E94282B6B017C01C801A9
:104E30000E94F60E81110BC00E94282B6C197D096F
:104E40008E099F096E3E72408105910580F3C8016D
:104E50000E94120FC8010E941E1040E06EEBC801B4
:104E60000E94B80FCE0101967C016E0196E0C90E3A
:104E7000D11CC8010E940210F70181937F01EC153B
:104E8000FD05B9F76A8170E0762F66278981682B66
:104E9000882777FD8095982F0E94F73220E030E038
:104EA00040E85DE30E942A342C960FB6F894DEBFEA
:104EB0000FBECDBFDF91CF911F910F91FF90EF906B
:104EC000DF90CF9008950F931F93CF93DF931F929E
:104ED000CDB7DEB78C0169830E948A236981C8013E
:104EE0000F90DF91CF911F910F910C948B230C9415
:104EF0008B23CF93DF93EC010E94A52381110DC07A
:104F000062E0CE010E941C24CE010E94D323CE0178
:104F10000E9484248C838C8101C080E0DF91CF913A
:104F20000895CF93DF931F92CDB7DEB769830E94B8
:104F30007927982F6981613019F0623029F008C013
:104F400081E0923041F408C081E0913021F404C046
:104F500081E0911101C080E00F90DF91CF91089521
:104F60000F931F93CF93DF931F92CDB7DEB78C01C2
:104F700069830E948A236981C8010F90DF91CF91D4
:104F80001F910F910C948B230C948B23CF93DF9361
:104F9000EC010E94A52381110DC062E0CE010E94A8
:104FA0001C24CE010E94D323CE010E9484248C8332
:104FB0008C8101C080E0DF91CF910895CF93DF9382
:104FC000EC010E94A52381110FC064E0CE010E9474
:104FD0001C24CE010E94A523811106C06C85CE0140
:104FE000DF91CF910C941C24DF91CF9108950F9302
:104FF0001F93CF93DF931F92CDB7DEB78C016983E8
:105000000E948A23F8011682178210861186128662
:10501000138614866981C8010F90DF91CF911F918B
:105020000F910C948B230C948B23CF92DF92EF92F1
:10503000FF92CF93DF93EC010E94A523882339F0E0
:10504000C12CD12C8AEFE82E83E4F82E27C062E031
:10505000CE010E941C24CE010E94D323CE010E94C7
:1050600084248C83CE010E9484248D838D816C8165
:1050700070E0782B80E090E00E94F5322CE53FE86C
:105080004CE851E40E945C326B017C0120E030E08E
:105090004AEF53E40E941F34181694F2C701B60178
:1050A000DF91CF91FF90EF90DF90CF900895CF9355
:1050B000DF93EC010E94A523811123C063E0CE01A0
:1050C0000E941C24CE010E94A52381111AC06E816A
:1050D000CE010E941C246F81CE010E941C24688591
:1050E000CE010E941C246985CE010E941C246A8581
:1050F000CE010E941C246B85CE01DF91CF910C94D0
:105100001C24DF91CF910895FC016683478320879B
:105110000C945728FC016187428723870C945728F9
:105120000F93FC0160FF03C046832783008761FF64
:1051300003C0418722870387637021F0CF010F915D
:105140000C9457280F910895637061F0FC01248539
:10515000442319F0262B248703C0609562236487BB
:105160000C94DE2708950F931F93CF93DF931F9224
:10517000CDB7DEB78C0169830E948A236981C8019B
:105180000F90DF91CF911F910F910C948B230C9472
:105190008B230F931F93CF93DF931F92CDB7DEB76F
:1051A0008C0169830E94A523698181110DC066234A
:1051B00011F062E001C063E0C8010F90DF91CF9170
:1051C0001F910F910C941C240F90DF91CF911F9190
:1051D0000F9108951F920F920FB60F9211242F93E3
:1051E0003F934F935F936F937F938F939F93AF936F
:1051F000BF93EF93FF938091EF0387FF05C0109259
:105200008500109284001AC02091EF03332727FDF8
:1052100030958091EE0390E0281739077CF4809157
:10522000EF03992787FD9095FC01EE0FFF1FE80F14
:10523000F91FE051FC4F808187FD15C08091EF037D
:105240008F5F8093EF032091EF03332727FD309585
:105250008091EE0390E028173907BCF48091EF03AA
:105260008C305CF112C08091EF03992787FD9095F7
:10527000FC01EE0FFF1FE80FF91FE051FC4F80818A
:1052800060E08F770E94A32CD9CF80918400909109
:105290008500049680349C4918F480E49CE905C09C
:1052A000809184009091850004969093890080936A
:1052B00088008FEF8093EF0338C0209184003091F5
:1052C00085008091EF03992787FD9095FC01EE0FF3
:1052D000FF1FE80FF91FE051FC4F81819281820F7F
:1052E000931F90938900809388008091EF03992702
:1052F00087FD9095FC01EE0FFF1FE80FF91FE051AD
:10530000FC4F808187FF11C08091EF03992787FDB3
:105310009095FC01EE0FFF1FE80FF91FE051FC4FC5
:10532000808161E08F770E94A32CFF91EF91BF9164
:10533000AF919F918F917F916F915F914F913F912D
:105340002F910F900FBE0F901F9018952091EE0394
:105350002C30A0F431E0320F3093EE03FC012083B7
:10536000822F90E0FC01EE0FFF1FE80FF91FE051C4
:10537000FC4F88EB9BE09283818308952FEFFC0123
:1053800020830895DF92EF92FF920F931F93CF93A4
:10539000DF93EC01D62E7A01890188818C3008F0E8
:1053A00066C061E08D2D0E946A2C8881A82FB0E034
:1053B000FD01EE0FFF1FEA0FFB1FE051FC4F2D2DEB
:1053C0002F7790819078922B908360E272E06E1933
:1053D0007F0977FF02C06D5F7F4F75956795759563
:1053E0006795698340E659E0401B510B57FF02C0A7
:1053F0004D5F5F4F55954795559547954A836CE0AE
:105400000E940D359CE0899FB001112420E030E01E
:10541000A901460F571FFA01EE0FFF1FE40FF51FFA
:10542000E051FC4F908197FD16C02F5F3F4F2C300D
:10543000310571F781110FC01092800082E08093D6
:1054400081001092850010928400B19A80916F00C3
:10545000826080936F00888190E0FC01EE0FFF1F57
:10546000E80FF91FE051FC4F8081806880838881BC
:10547000DF91CF911F910F91FF90EF90DF900895F2
:1054800020E639E040E252E00C94C229FC01808120
:105490008C3070F5918128E830E0291B310997FDA7
:1054A0003395220F331F220F331F621773077CF0CF
:1054B000928128E532E0291B310997FD3395220FAF
:1054C000331F220F331F621773070CF49B01225006
:1054D0003109220F331F4FB7F89490E0FC01EE0F13
:1054E000FF1FE80FF91FE051FC4F328321834FBFAC
:1054F00008954F925F926F927F92AF92BF92CF9238
:10550000DF92EF92FF920F931F93CF93DF93EC0103
:10551000603282E078070CF040C077FD06C0653B42
:1055200071052CF064EB70E002C060E070E08981EE
:1055300028E830E0281B310987FD3395220F331FFF
:10554000220F331F5901CC24B7FCC094DC2C8827D0
:1055500077FD8095982F2A8148E552E0421B51093A
:1055600027FD5395440F551F440F551F2A016624EC
:1055700057FC6094762C7F926F925F924F9214EB5F
:10558000E12EF12C00E010E020E030E0A9010E94C3
:1055900049310F900F900F900F90CE01DF91CF9176
:1055A0001F910F91FF90EF90DF90CF90BF90AF9041
:1055B0007F906F905F904F900C94462A1F920F92AD
:1055C0000FB60F9211242F933F938F939F93AF9316
:1055D000BF938091150490911604A0911704B09187
:1055E00018043091140423E0230F2D3720F4019682
:1055F000A11DB11D05C026E8230F0296A11DB11DF6
:10560000209314048093150490931604A093170418
:10561000B09318048091190490911A04A0911B046E
:10562000B0911C040196A11DB11D809319049093A3
:105630001A04A0931B04B0931C04BF91AF919F91D7
:105640008F913F912F910F900FBE0F901F90189543
:105650002FB7F89460911504709116048091170487
:10566000909118042FBF08953FB7F89480911904C2
:1056700090911A04A0911B04B0911C0426B5A89B1C
:1056800005C02F3F19F00196A11DB11D3FBF662730
:10569000782F892F9A2F620F711D811D911D42E075
:1056A000660F771F881F991F4A95D1F70895CF92EB
:1056B000DF92EF92FF92CF93DF936B017C010E9408
:1056C000342BEB01C114D104E104F10489F00E94F0
:1056D00090310E94342B6C1B7D0B683E734090F31D
:1056E00081E0C81AD108E108F108C851DC4FEACFBF
:1056F000DF91CF91FF90EF90DF90CF9008958230AF
:10570000910538F0880F991F880F991F0597019709
:10571000F1F70895789484B5826084BD84B5816082
:1057200084BD85B5826085BD85B5816085BDEEE6A9
:10573000F0E0808181608083E1E8F0E01082808188
:1057400082608083808181608083E0E8F0E08081F6
:1057500081608083E1EBF0E0808184608083E0EB16
:10576000F0E0808181608083EAE7F0E080818460FE
:10577000808380818260808380818160808380815A
:10578000806880831092C10008958E3008F08E509A
:1057900087702091220190E4299F90011124822B8F
:1057A00080937C0080917A00806480937A0080915D
:1057B0007A0086FDFCCF809178002091790090E0FE
:1057C000922B08951F93CF93DF93182FEB0161E085
:1057D0000E946A2C209711F460E004C0CF3FD105ED
:1057E00039F461E0812FDF91CF911F910C94A32CAC
:1057F000E12FF0E0EA56FF4FE491E330F9F048F48E
:10580000E130B9F0E230A1F584B5806284BDC8BD55
:1058100034C0E730E9F0E83019F1E43049F580911F
:105820008000806280938000D0938B00C0938A00B8
:1058300024C084B5806884BDC7BD1FC0809180002E
:10584000806880938000D0938900C093880015C041
:105850008091B00080688093B000C093B3000DC009
:105860008091B00080628093B000C093B40005C006
:10587000C038D1050CF0B5CFAFCFDF91CF911F91DC
:105880000895833081F028F4813099F08230A1F0BE
:1058900008958730A9F08830B9F08430D1F4809130
:1058A00080008F7D03C0809180008F77809380007F
:1058B000089584B58F7702C084B58F7D84BD089527
:1058C0008091B0008F7703C08091B0008F7D80936E
:1058D000B0000895CF93DF9390E0FC01E655FF4FB1
:1058E0002491FC01E254FF4F8491882349F190E018
:1058F000880F991FFC01EA51FF4FA591B491845282
:105900009F4FFC01C591D4919FB7611108C0F894D5
:105910008C91209582238C93888182230AC06230E7
:1059200051F4F8948C91322F309583238C93888195
:10593000822B888304C0F8948C91822B8C939FBF18
:10594000DF91CF9108950F931F93CF93DF931F9211
:10595000CDB7DEB7282F30E0F901EA56FF4F84912A
:10596000F901E655FF4F1491F901E254FF4F0491FC
:105970000023C9F0882321F069830E94412C6981AA
:10598000E02FF0E0EE0FFF1FE452FF4FA591B4911E
:105990009FB7F8948C91611103C01095812301C0C9
:1059A000812B8C939FBF0F90DF91CF911F910F910F
:1059B0000895CF93DF93282F30E0F901EA56FF4F87
:1059C0008491F901E655FF4FD491F901E254FF4F5C
:1059D000C491CC2391F081110E94412CEC2FF0E076
:1059E000EE0FFF1FEE52FF4FA591B4912C912D2386
:1059F00081E090E021F480E002C080E090E0DF915F
:105A0000CF910895FC01818D228D90E0805C9F4FA5
:105A1000821B91098F7399270895FC01918D828DC6
:105A2000981731F0828DE80FF11D858D90E0089573
:105A30008FEF9FEF0895FC01918D828D981761F093
:105A4000828DDF01A80FB11D5D968C91928D9F5FB5
:105A50009F73928F90E008958FEF9FEF08958FE9E5
:105A60009EE2892B49F080E090E0892B29F00E948A
:105A70009F2E81110C9400000895FC01848DDF019C
:105A8000A80FB11DA35ABF4F2C91848D90E00196B1
:105A90008F739927848FA689B7892C93A089B189A0
:105AA0008C9180648C93938D848D981306C00288AA
:105AB000F389E02D80818F7D80830895CF93DF93DC
:105AC000EC01888D8823C9F0EA89FB89808185FDF6
:105AD00005C0A889B9898C9186FD0FC00FB607FC57
